{
  "contractName": "Escrow_original",
  "abi": [
    {
      "anonymous": false,
      "inputs": [
        {
          "indexed": false,
          "internalType": "bool",
          "name": "completed",
          "type": "bool"
        },
        {
          "indexed": false,
          "internalType": "uint256",
          "name": "buyerReceives",
          "type": "uint256"
        },
        {
          "indexed": false,
          "internalType": "uint256",
          "name": "sellerReceives",
          "type": "uint256"
        }
      ],
      "name": "EscrowComplete",
      "type": "event"
    },
    {
      "anonymous": false,
      "inputs": [
        {
          "indexed": false,
          "internalType": "address",
          "name": "sender",
          "type": "address"
        },
        {
          "indexed": false,
          "internalType": "uint256",
          "name": "amount",
          "type": "uint256"
        }
      ],
      "name": "FundsReceived",
      "type": "event"
    },
    {
      "anonymous": false,
      "inputs": [
        {
          "indexed": false,
          "internalType": "address",
          "name": "initiator",
          "type": "address"
        },
        {
          "indexed": false,
          "internalType": "address",
          "name": "buyer",
          "type": "address"
        },
        {
          "indexed": false,
          "internalType": "address",
          "name": "seller",
          "type": "address"
        },
        {
          "indexed": false,
          "internalType": "uint256",
          "name": "tradeFundsforXfer",
          "type": "uint256"
        }
      ],
      "name": "Initiated",
      "type": "event"
    },
    {
      "anonymous": false,
      "inputs": [
        {
          "indexed": false,
          "internalType": "address",
          "name": "party",
          "type": "address"
        }
      ],
      "name": "PartyFinalized",
      "type": "event"
    },
    {
      "anonymous": false,
      "inputs": [
        {
          "indexed": false,
          "internalType": "uint256",
          "name": "purchaseAmount",
          "type": "uint256"
        },
        {
          "indexed": false,
          "internalType": "uint256",
          "name": "totalEscrowAmount",
          "type": "uint256"
        },
        {
          "indexed": false,
          "internalType": "uint256",
          "name": "BuyerRequiredFunding",
          "type": "uint256"
        },
        {
          "indexed": false,
          "internalType": "uint256",
          "name": "SellerRequiredFunding",
          "type": "uint256"
        }
      ],
      "name": "Terms",
      "type": "event"
    },
    {
      "stateMutability": "payable",
      "type": "fallback"
    },
    {
      "inputs": [],
      "name": "TotalRequiredEscrow",
      "outputs": [
        {
          "internalType": "uint256",
          "name": "",
          "type": "uint256"
        }
      ],
      "stateMutability": "view",
      "type": "function"
    },
    {
      "inputs": [],
      "name": "buyer",
      "outputs": [
        {
          "internalType": "address payable",
          "name": "",
          "type": "address"
        }
      ],
      "stateMutability": "view",
      "type": "function"
    },
    {
      "inputs": [],
      "name": "buyerEscrowedFunds",
      "outputs": [
        {
          "internalType": "uint256",
          "name": "",
          "type": "uint256"
        }
      ],
      "stateMutability": "view",
      "type": "function"
    },
    {
      "inputs": [],
      "name": "buyerHasFunded",
      "outputs": [
        {
          "internalType": "bool",
          "name": "",
          "type": "bool"
        }
      ],
      "stateMutability": "view",
      "type": "function"
    },
    {
      "inputs": [],
      "name": "buyerRequiredEscrow",
      "outputs": [
        {
          "internalType": "uint256",
          "name": "",
          "type": "uint256"
        }
      ],
      "stateMutability": "view",
      "type": "function"
    },
    {
      "inputs": [],
      "name": "buyerfinalized",
      "outputs": [
        {
          "internalType": "bool",
          "name": "",
          "type": "bool"
        }
      ],
      "stateMutability": "view",
      "type": "function"
    },
    {
      "inputs": [],
      "name": "escrowFullyFunded",
      "outputs": [
        {
          "internalType": "bool",
          "name": "",
          "type": "bool"
        }
      ],
      "stateMutability": "view",
      "type": "function"
    },
    {
      "inputs": [],
      "name": "finalized",
      "outputs": [
        {
          "internalType": "bool",
          "name": "",
          "type": "bool"
        }
      ],
      "stateMutability": "view",
      "type": "function"
    },
    {
      "inputs": [],
      "name": "initiated",
      "outputs": [
        {
          "internalType": "bool",
          "name": "",
          "type": "bool"
        }
      ],
      "stateMutability": "view",
      "type": "function"
    },
    {
      "inputs": [],
      "name": "mutualEscrowAmount",
      "outputs": [
        {
          "internalType": "uint256",
          "name": "",
          "type": "uint256"
        }
      ],
      "stateMutability": "view",
      "type": "function"
    },
    {
      "inputs": [],
      "name": "partyA",
      "outputs": [
        {
          "internalType": "address",
          "name": "",
          "type": "address"
        }
      ],
      "stateMutability": "view",
      "type": "function"
    },
    {
      "inputs": [],
      "name": "partyArequiredFunding",
      "outputs": [
        {
          "internalType": "uint256",
          "name": "",
          "type": "uint256"
        }
      ],
      "stateMutability": "view",
      "type": "function"
    },
    {
      "inputs": [],
      "name": "partyB",
      "outputs": [
        {
          "internalType": "address",
          "name": "",
          "type": "address"
        }
      ],
      "stateMutability": "view",
      "type": "function"
    },
    {
      "inputs": [],
      "name": "partyBrequiredFunding",
      "outputs": [
        {
          "internalType": "uint256",
          "name": "",
          "type": "uint256"
        }
      ],
      "stateMutability": "view",
      "type": "function"
    },
    {
      "inputs": [],
      "name": "purchaseAmount",
      "outputs": [
        {
          "internalType": "uint256",
          "name": "",
          "type": "uint256"
        }
      ],
      "stateMutability": "view",
      "type": "function"
    },
    {
      "inputs": [],
      "name": "purchaseAmountTotal",
      "outputs": [
        {
          "internalType": "uint256",
          "name": "",
          "type": "uint256"
        }
      ],
      "stateMutability": "view",
      "type": "function"
    },
    {
      "inputs": [],
      "name": "seller",
      "outputs": [
        {
          "internalType": "address payable",
          "name": "",
          "type": "address"
        }
      ],
      "stateMutability": "view",
      "type": "function"
    },
    {
      "inputs": [],
      "name": "sellerEscrowedFunds",
      "outputs": [
        {
          "internalType": "uint256",
          "name": "",
          "type": "uint256"
        }
      ],
      "stateMutability": "view",
      "type": "function"
    },
    {
      "inputs": [],
      "name": "sellerHasFunded",
      "outputs": [
        {
          "internalType": "bool",
          "name": "",
          "type": "bool"
        }
      ],
      "stateMutability": "view",
      "type": "function"
    },
    {
      "inputs": [],
      "name": "sellerRequiredEscrow",
      "outputs": [
        {
          "internalType": "uint256",
          "name": "",
          "type": "uint256"
        }
      ],
      "stateMutability": "view",
      "type": "function"
    },
    {
      "inputs": [],
      "name": "sellerfinalized",
      "outputs": [
        {
          "internalType": "bool",
          "name": "",
          "type": "bool"
        }
      ],
      "stateMutability": "view",
      "type": "function"
    },
    {
      "inputs": [],
      "name": "totalAmount",
      "outputs": [
        {
          "internalType": "uint256",
          "name": "",
          "type": "uint256"
        }
      ],
      "stateMutability": "view",
      "type": "function"
    },
    {
      "inputs": [],
      "name": "totalEscrowAmount",
      "outputs": [
        {
          "internalType": "uint256",
          "name": "",
          "type": "uint256"
        }
      ],
      "stateMutability": "view",
      "type": "function"
    },
    {
      "stateMutability": "payable",
      "type": "receive"
    },
    {
      "inputs": [
        {
          "internalType": "address payable",
          "name": "_buyer",
          "type": "address"
        },
        {
          "internalType": "address payable",
          "name": "_seller",
          "type": "address"
        },
        {
          "internalType": "uint256",
          "name": "_purchaseAmount",
          "type": "uint256"
        }
      ],
      "name": "EscrowFunc",
      "outputs": [],
      "stateMutability": "nonpayable",
      "type": "function"
    },
    {
      "inputs": [
        {
          "internalType": "address",
          "name": "_counterParty",
          "type": "address"
        },
        {
          "internalType": "uint256",
          "name": "_purchaseAmount",
          "type": "uint256"
        },
        {
          "internalType": "bool",
          "name": "_buyingNotSelling",
          "type": "bool"
        }
      ],
      "name": "Initiate",
      "outputs": [
        {
          "internalType": "bool",
          "name": "",
          "type": "bool"
        }
      ],
      "stateMutability": "nonpayable",
      "type": "function"
    },
    {
      "inputs": [
        {
          "internalType": "address",
          "name": "c",
          "type": "address"
        },
        {
          "internalType": "uint256",
          "name": "p",
          "type": "uint256"
        }
      ],
      "name": "initiateselling",
      "outputs": [],
      "stateMutability": "nonpayable",
      "type": "function"
    },
    {
      "inputs": [
        {
          "internalType": "address",
          "name": "c",
          "type": "address"
        },
        {
          "internalType": "uint256",
          "name": "p",
          "type": "uint256"
        }
      ],
      "name": "initiatebuying",
      "outputs": [],
      "stateMutability": "nonpayable",
      "type": "function"
    },
    {
      "inputs": [
        {
          "internalType": "address",
          "name": "_funder",
          "type": "address"
        },
        {
          "internalType": "uint256",
          "name": "_amount",
          "type": "uint256"
        }
      ],
      "name": "fundContract",
      "outputs": [],
      "stateMutability": "nonpayable",
      "type": "function"
    },
    {
      "inputs": [],
      "name": "getPurchaseAmount",
      "outputs": [
        {
          "internalType": "uint256",
          "name": "",
          "type": "uint256"
        }
      ],
      "stateMutability": "view",
      "type": "function"
    },
    {
      "inputs": [],
      "name": "buyerFinalize",
      "outputs": [],
      "stateMutability": "nonpayable",
      "type": "function"
    },
    {
      "inputs": [],
      "name": "sellerFinalize",
      "outputs": [],
      "stateMutability": "nonpayable",
      "type": "function"
    }
  ],
  "bytecode": "0x608060405260006002556000600360006101000a81548160ff0219169083151502179055506000600360016101000a81548160ff0219169083151502179055506000600455600060055560006006556000600755600060085560006009556000600a556000601160006101000a81548160ff0219169083151502179055506000601160016101000a81548160ff0219169083151502179055506000601160026101000a81548160ff0219169083151502179055506000601160036101000a81548160ff0219169083151502179055506000601160046101000a81548160ff0219169083151502179055503480156100f557600080fd5b50611af4806101056000396000f3fe6080604052600436106101dc5760003560e01c8063819d1a3e11610102578063ae91639711610095578063ee05189111610064578063ee0518911461068d578063f2a7d51b146106b8578063f6673296146106e3578063fa7838fc1461070e576101e3565b8063ae916397146105f5578063b3f05b9714610620578063bf4f28821461064b578063c341853f14610662576101e3565b80639f118536116100d15780639f1185361461054d578063a40668b214610578578063a8fc144e146105a1578063aa621147146105cc576101e3565b8063819d1a3e146104a15780638b28cd19146104cc5780638d531682146104f75780639801bfa614610522576101e3565b806342e02fb41161017a57806350fa6e241161014957806350fa6e24146103f75780636989ff81146104205780636b03fb001461044b5780637150d8ae14610476576101e3565b806342e02fb41461036157806348a19ca71461038a5780634aa51e1a146103b55780634f5f0dec146103cc576101e3565b806310e1d8ca116101b657806310e1d8ca146102b55780631125f37b146102e05780631a39d8ef1461030b5780632904011314610336576101e3565b80630144e9dc1461023457806308551a531461025f5780630c363fab1461028a576101e3565b366101e357005b600033905060003490506101f7828261074b565b7f8e47b87b0ef542cdfa1659c551d88bad38aa7f452d2bbb349ab7530dfec8be8f8282604051610228929190611419565b60405180910390a15050005b34801561024057600080fd5b50610249610857565b6040516102569190611442565b60405180910390f35b34801561026b57600080fd5b5061027461085d565b604051610281919061147e565b60405180910390f35b34801561029657600080fd5b5061029f610883565b6040516102ac9190611442565b60405180910390f35b3480156102c157600080fd5b506102ca610889565b6040516102d79190611499565b60405180910390f35b3480156102ec57600080fd5b506102f56108af565b60405161030291906114cf565b60405180910390f35b34801561031757600080fd5b506103206108c2565b60405161032d9190611442565b60405180910390f35b34801561034257600080fd5b5061034b6108c8565b6040516103589190611499565b60405180910390f35b34801561036d57600080fd5b5061038860048036038101906103839190611547565b61074b565b005b34801561039657600080fd5b5061039f6108ee565b6040516103ac9190611442565b60405180910390f35b3480156103c157600080fd5b506103ca6108f4565b005b3480156103d857600080fd5b506103e16109cc565b6040516103ee9190611442565b60405180910390f35b34801561040357600080fd5b5061041e60048036038101906104199190611547565b6109d2565b005b34801561042c57600080fd5b50610435610a72565b6040516104429190611442565b60405180910390f35b34801561045757600080fd5b50610460610a78565b60405161046d91906114cf565b60405180910390f35b34801561048257600080fd5b5061048b610a8b565b604051610498919061147e565b60405180910390f35b3480156104ad57600080fd5b506104b6610aaf565b6040516104c39190611442565b60405180910390f35b3480156104d857600080fd5b506104e1610ab5565b6040516104ee9190611442565b60405180910390f35b34801561050357600080fd5b5061050c610abf565b60405161051991906114cf565b60405180910390f35b34801561052e57600080fd5b50610537610ad2565b6040516105449190611442565b60405180910390f35b34801561055957600080fd5b50610562610ad8565b60405161056f91906114cf565b60405180910390f35b34801561058457600080fd5b5061059f600480360381019061059a91906115b3565b610aeb565b005b3480156105ad57600080fd5b506105b6610e1f565b6040516105c39190611442565b60405180910390f35b3480156105d857600080fd5b506105f360048036038101906105ee9190611547565b610e25565b005b34801561060157600080fd5b5061060a610ec5565b6040516106179190611442565b60405180910390f35b34801561062c57600080fd5b50610635610ecb565b60405161064291906114cf565b60405180910390f35b34801561065757600080fd5b50610660610ede565b005b34801561066e57600080fd5b50610677610fb4565b6040516106849190611442565b60405180910390f35b34801561069957600080fd5b506106a2610fba565b6040516106af9190611442565b60405180910390f35b3480156106c457600080fd5b506106cd610fc0565b6040516106da91906114cf565b60405180910390f35b3480156106ef57600080fd5b506106f8610fd3565b60405161070591906114cf565b60405180910390f35b34801561071a57600080fd5b5061073560048036038101906107309190611632565b610fe6565b60405161074291906114cf565b60405180910390f35b60008054906101000a900473ffffffffffffffffffffffffffffffffffffffff1673ffffffffffffffffffffffffffffffffffffffff168273ffffffffffffffffffffffffffffffffffffffff161480156107aa575060045460095411155b156107ca576000600954905081816107c291906116b4565b600981905550505b600160009054906101000a900473ffffffffffffffffffffffffffffffffffffffff1673ffffffffffffffffffffffffffffffffffffffff168273ffffffffffffffffffffffffffffffffffffffff1614801561082b5750600554600a5411155b1561084b576000600a549050818161084391906116b4565b600a81905550505b610853611066565b5050565b60085481565b600160009054906101000a900473ffffffffffffffffffffffffffffffffffffffff1681565b600d5481565b600e60009054906101000a900473ffffffffffffffffffffffffffffffffffffffff1681565b601160049054906101000a900460ff1681565b60075481565b600f60009054906101000a900473ffffffffffffffffffffffffffffffffffffffff1681565b60105481565b600160009054906101000a900473ffffffffffffffffffffffffffffffffffffffff1673ffffffffffffffffffffffffffffffffffffffff163373ffffffffffffffffffffffffffffffffffffffff161461094e57600080fd5b6001601160046101000a81548160ff0219169083151502179055507f68b2e274177a5387b8318d5676b1c276abf858756d303d3a6c253ff3515944f2336040516109989190611499565b60405180910390a160011515601160039054906101000a900460ff16151514156109c9576109c4611187565b6109ca565b5b565b60045481565b81600e60006101000a81548173ffffffffffffffffffffffffffffffffffffffff021916908373ffffffffffffffffffffffffffffffffffffffff16021790555033600f60006101000a81548173ffffffffffffffffffffffffffffffffffffffff021916908373ffffffffffffffffffffffffffffffffffffffff16021790555080600c81905550600281610a68919061170a565b600d819055505050565b600c5481565b601160039054906101000a900460ff1681565b60008054906101000a900473ffffffffffffffffffffffffffffffffffffffff1681565b600a5481565b6000600254905090565b601160029054906101000a900460ff1681565b600b5481565b600360009054906101000a900460ff1681565b600073ffffffffffffffffffffffffffffffffffffffff168273ffffffffffffffffffffffffffffffffffffffff161415610b2557600080fd5b600073ffffffffffffffffffffffffffffffffffffffff168373ffffffffffffffffffffffffffffffffffffffff161415610b5f57600080fd5b8173ffffffffffffffffffffffffffffffffffffffff168373ffffffffffffffffffffffffffffffffffffffff161415610bce576040517f08c379a0000000000000000000000000000000000000000000000000000000008152600401610bc59061191b565b60405180910390fd5b8173ffffffffffffffffffffffffffffffffffffffff163373ffffffffffffffffffffffffffffffffffffffff161480610c3357508273ffffffffffffffffffffffffffffffffffffffff163373ffffffffffffffffffffffffffffffffffffffff16145b610c3c57600080fd5b6000811415610c4a57600080fd5b6000601160026101000a81548160ff021916908315150217905550826000806101000a81548173ffffffffffffffffffffffffffffffffffffffff021916908373ffffffffffffffffffffffffffffffffffffffff16021790555081600160006101000a81548173ffffffffffffffffffffffffffffffffffffffff021916908373ffffffffffffffffffffffffffffffffffffffff1602179055506001600360006101000a81548160ff021916908315150217905550600281610d0e919061170a565b60048190555080600581905550600381610d28919061170a565b60068190555080600281905550600554600454610d4591906116b4565b60065414610d5657610d5561193b565b5b7f481925be43dc1ea1406c8639bb61697816d24e9e3899052a4e8ee218e7a0eb363360008054906101000a900473ffffffffffffffffffffffffffffffffffffffff16600160009054906101000a900473ffffffffffffffffffffffffffffffffffffffff1684604051610dcd94939291906119c9565b60405180910390a17f69759e3659bae3d5a28e2aa3aa80c6ec1ef6a035a6c807b988615f144959925a600254600654600454600554604051610e129493929190611a0e565b60405180910390a1505050565b60095481565b33600e60006101000a81548173ffffffffffffffffffffffffffffffffffffffff021916908373ffffffffffffffffffffffffffffffffffffffff16021790555081600f60006101000a81548173ffffffffffffffffffffffffffffffffffffffff021916908373ffffffffffffffffffffffffffffffffffffffff160217905550600281610eb4919061170a565b600c8190555080600d819055505050565b60065481565b600360019054906101000a900460ff1681565b60008054906101000a900473ffffffffffffffffffffffffffffffffffffffff1673ffffffffffffffffffffffffffffffffffffffff163373ffffffffffffffffffffffffffffffffffffffff1614610f3657600080fd5b6001601160036101000a81548160ff0219169083151502179055507f68b2e274177a5387b8318d5676b1c276abf858756d303d3a6c253ff3515944f233604051610f809190611499565b60405180910390a160011515601160049054906101000a900460ff1615151415610fb157610fac611187565b610fb2565b5b565b60025481565b60055481565b601160009054906101000a900460ff1681565b601160019054906101000a900460ff1681565b600082600b81905550600383610ffc919061170a565b60108190555060011515821515141561101e576110198484610e25565b611040565b60001515821515141561103a5761103584846109d2565b61103f565b600080fd5b5b6001600360006101000a81548160ff021916908315150217905550600190509392505050565b600454600954106110b9576001601160006101000a81548160ff0219169083151502179055506110b860008054906101000a900473ffffffffffffffffffffffffffffffffffffffff1660095461074b565b5b600554600a541061110e576001601160016101000a81548160ff02191690831515021790555061110d600160009054906101000a900473ffffffffffffffffffffffffffffffffffffffff16600a5461074b565b5b60011515601160019054906101000a900460ff161515148015611144575060011515601160009054906101000a900460ff161515145b15611169576001601160026101000a81548160ff021916908315150217905550611185565b6000601160026101000a81548160ff0219169083151502179055505b565b60011515601160019054906101000a900460ff161515146111a757600080fd5b60011515601160009054906101000a900460ff161515146111c757600080fd5b60011515601160039054906101000a900460ff161515146111e757600080fd5b60011515601160049054906101000a900460ff1615151461120757600080fd5b60001515600360019054906101000a900460ff1615151461122757600080fd5b6000600a5460025461123991906116b4565b9050600060025460095461124d9190611a53565b90507f6d2d1cef1901e61bd791b41ebbf61bcc142915be4255d75d796211fd63de9e52600360019054906101000a900460ff16828460405161129193929190611a87565b60405180910390a1600160009054906101000a900473ffffffffffffffffffffffffffffffffffffffff1673ffffffffffffffffffffffffffffffffffffffff166108fc839081150290604051600060405180830381858888f19350505050158015611301573d6000803e3d6000fd5b5060008054906101000a900473ffffffffffffffffffffffffffffffffffffffff1673ffffffffffffffffffffffffffffffffffffffff166108fc829081150290604051600060405180830381858888f19350505050158015611368573d6000803e3d6000fd5b506001600360016101000a81548160ff021916908315150217905550600160009054906101000a900473ffffffffffffffffffffffffffffffffffffffff1673ffffffffffffffffffffffffffffffffffffffff16ff5b600073ffffffffffffffffffffffffffffffffffffffff82169050919050565b60006113ea826113bf565b9050919050565b6113fa816113df565b82525050565b6000819050919050565b61141381611400565b82525050565b600060408201905061142e60008301856113f1565b61143b602083018461140a565b9392505050565b6000602082019050611457600083018461140a565b92915050565b6000611468826113bf565b9050919050565b6114788161145d565b82525050565b6000602082019050611493600083018461146f565b92915050565b60006020820190506114ae60008301846113f1565b92915050565b60008115159050919050565b6114c9816114b4565b82525050565b60006020820190506114e460008301846114c0565b92915050565b600080fd5b6114f8816113df565b811461150357600080fd5b50565b600081359050611515816114ef565b92915050565b61152481611400565b811461152f57600080fd5b50565b6000813590506115418161151b565b92915050565b6000806040838503121561155e5761155d6114ea565b5b600061156c85828601611506565b925050602061157d85828601611532565b9150509250929050565b6115908161145d565b811461159b57600080fd5b50565b6000813590506115ad81611587565b92915050565b6000806000606084860312156115cc576115cb6114ea565b5b60006115da8682870161159e565b93505060206115eb8682870161159e565b92505060406115fc86828701611532565b9150509250925092565b61160f816114b4565b811461161a57600080fd5b50565b60008135905061162c81611606565b92915050565b60008060006060848603121561164b5761164a6114ea565b5b600061165986828701611506565b935050602061166a86828701611532565b925050604061167b8682870161161d565b9150509250925092565b7f4e487b7100000000000000000000000000000000000000000000000000000000600052601160045260246000fd5b60006116bf82611400565b91506116ca83611400565b9250827fffffffffffffffffffffffffffffffffffffffffffffffffffffffffffffffff038211156116ff576116fe611685565b5b828201905092915050565b600061171582611400565b915061172083611400565b9250817fffffffffffffffffffffffffffffffffffffffffffffffffffffffffffffffff048311821515161561175957611758611685565b5b828202905092915050565b600082825260208201905092915050565b7f53656c6c657220616e6420627579657220617265206e6f74207468652073616d60008201527f652c2074686579206861766520646966666572656e74206163636f756e74732060208201527f616e6420646f206e6f74207368617265207468652073616d65206f6e652e205760408201527f65206172652077726974696e672074686973206572726f72206d65737361676560608201527f20746f206c657420796f75206b6e6f772074686174207468652062757965722060808201527f616e64207468652073656c6c657220617265206e6f74207468652073616d652e60a08201527f205065726861707320796f75206d6164652061207479706f206f7220796f752060c08201527f617265206a75737420747279696e6720746f206265207665727920646573637260e08201527f6970746976652e20506c656173652074727920616761696e20776974682061206101008201527f73686f7274657220737472696e6720666f7220726561736f6e2e00000000000061012082015250565b600061190461013a83611764565b915061190f82611775565b61014082019050919050565b60006020820190508181036000830152611934816118f6565b9050919050565b7f4e487b7100000000000000000000000000000000000000000000000000000000600052600160045260246000fd5b6000819050919050565b600061198f61198a611985846113bf565b61196a565b6113bf565b9050919050565b60006119a182611974565b9050919050565b60006119b382611996565b9050919050565b6119c3816119a8565b82525050565b60006080820190506119de60008301876113f1565b6119eb60208301866119ba565b6119f860408301856119ba565b611a05606083018461140a565b95945050505050565b6000608082019050611a23600083018761140a565b611a30602083018661140a565b611a3d604083018561140a565b611a4a606083018461140a565b95945050505050565b6000611a5e82611400565b9150611a6983611400565b925082821015611a7c57611a7b611685565b5b828203905092915050565b6000606082019050611a9c60008301866114c0565b611aa9602083018561140a565b611ab6604083018461140a565b94935050505056fea2646970667358221220ec90b934c59efcd40ef062503631a2b3ef6fec4446e7e2140014c5354540064b64736f6c634300080b0033",
  "immutableReferences": {},
  "source": "// SPDX-License-Identifier: MIT\r\npragma solidity >=0.4.22 <0.9.0;\r\n\r\ncontract Escrow_original {\r\n\r\n  address payable public buyer;\r\n  address payable public seller; \r\n  uint public purchaseAmount = 0;\r\n\r\n\r\n  bool public initiated = false;\r\n  bool public finalized = false;\r\n\r\n  uint public buyerRequiredEscrow = 0;\r\n  uint public sellerRequiredEscrow = 0;\r\n  uint public totalEscrowAmount = 0;\r\n  uint public totalAmount = 0;\r\n  uint public TotalRequiredEscrow = 0;\r\n\r\n  uint public buyerEscrowedFunds = 0;\r\n  uint public sellerEscrowedFunds = 0;\r\n\r\n  uint256 public purchaseAmountTotal;\r\n\r\n  uint256 public partyArequiredFunding; \r\n  uint256 public partyBrequiredFunding;\r\n\r\n  address public partyA; //BUYER\r\n  address public partyB; //SELLER\r\n\r\n  uint256 public mutualEscrowAmount;\r\n\r\n  bool public buyerHasFunded = false;\r\n  bool public sellerHasFunded = false;\r\n\r\n  bool public escrowFullyFunded = false;\r\n\r\n  bool public buyerfinalized = false;\r\n  bool public sellerfinalized = false;\r\n\r\n  event Terms(uint purchaseAmount, uint totalEscrowAmount, uint BuyerRequiredFunding, uint SellerRequiredFunding);\r\n  event Initiated(address initiator, address buyer, address seller, uint tradeFundsforXfer);\r\n  event FundsReceived(address sender, uint amount);\r\n  event PartyFinalized(address party);\r\n  event EscrowComplete(bool completed, uint buyerReceives, uint sellerReceives);\r\n\r\n  function EscrowFunc(\r\n    address payable _buyer,\r\n    address payable _seller,\r\n    uint _purchaseAmount\r\n  ) public {\r\n \r\n    require(_seller != address(0));\r\n    require(_buyer != address(0));\r\n    require(_buyer != _seller, \"Seller and buyer are not the same, they have different accounts and do not share the same one. We are writing this error message to let you know that the buyer and the seller are not the same. Perhaps you made a typo or you are just trying to be very descriptive. Please try again with a shorter string for reason.\");\r\n\r\n    require(msg.sender == _seller || msg.sender == _buyer);\r\n\r\n    require(_purchaseAmount != 0);\r\n\r\n    escrowFullyFunded = false;\r\n\r\n    buyer = _buyer; \r\n    seller = _seller; \r\n\r\n    initiated = true;\r\n\r\n    buyerRequiredEscrow = _purchaseAmount * 2;\r\n    sellerRequiredEscrow = _purchaseAmount;\r\n    totalEscrowAmount = _purchaseAmount * 3;\r\n    purchaseAmount = _purchaseAmount;\r\n\r\n    assert(totalEscrowAmount == (buyerRequiredEscrow + sellerRequiredEscrow));\r\n\r\n    emit Initiated(msg.sender, buyer, seller, _purchaseAmount);\r\n    emit Terms(purchaseAmount, totalEscrowAmount, buyerRequiredEscrow, sellerRequiredEscrow);\r\n  }\r\n\r\n  function Initiate(\r\n    address _counterParty,\r\n    uint256 _purchaseAmount,\r\n    bool _buyingNotSelling // TRUE if Buyer; FALSE if seller;\r\n  )\r\n  public returns\r\n  (bool) {\r\n    purchaseAmountTotal = _purchaseAmount;\r\n    mutualEscrowAmount = _purchaseAmount * 3;\r\n \r\n    if (_buyingNotSelling == true) {\r\n      initiateselling(_counterParty,_purchaseAmount);\r\n \r\n \r\n    } else if (_buyingNotSelling == false) {\r\n      initiatebuying(_counterParty,_purchaseAmount);\r\n \r\n    } else {\r\n      revert(); // Fallback\r\n    }\r\n \r\n    initiated = true;\r\n    return true;\r\n  }\r\n \r\n  function initiateselling(address c, uint256 p) public {\r\n      partyA = msg.sender; //Buyer\r\n      partyB = c; //Seller\r\n      partyArequiredFunding = p * 2;\r\n      partyBrequiredFunding = p;\r\n  }\r\n \r\n  function initiatebuying(address c, uint256 p) public {\r\n      partyA = c; //Buyer\r\n      partyB = msg.sender; //Seller\r\n      partyArequiredFunding = p;\r\n      partyBrequiredFunding = p * 2;\r\n  }\r\n\r\n\r\n  fallback() external payable {\r\n    address _funder = msg.sender;\r\n    uint _amount = msg.value;\r\n    fundContract(_funder, _amount);\r\n    emit FundsReceived(_funder, _amount);\r\n  }\r\n\r\n  receive() external payable {\r\n  }\r\n\r\n  function fundContract(address _funder, uint _amount) public {\r\n    if (_funder == buyer && buyerEscrowedFunds <= buyerRequiredEscrow) {\r\n      uint buyerCurrentFunds = buyerEscrowedFunds;\r\n      buyerEscrowedFunds = buyerCurrentFunds + _amount;\r\n    } \r\n    if (_funder == seller && sellerEscrowedFunds <= sellerRequiredEscrow) {\r\n      uint sellerCurrentFunds = sellerEscrowedFunds;\r\n      sellerEscrowedFunds = sellerCurrentFunds + _amount;\r\n    }\r\n    checkFundingStatus();\r\n  }\r\n\r\n  function getPurchaseAmount() public view returns(uint){\r\n    return purchaseAmount;\r\n  }\r\n     \r\n  function checkFundingStatus() internal {\r\n    if (buyerEscrowedFunds >= buyerRequiredEscrow) {\r\n      buyerHasFunded = true;\r\n      fundContract(buyer, buyerEscrowedFunds);\r\n    }\r\n    if (sellerEscrowedFunds >= sellerRequiredEscrow) {\r\n      sellerHasFunded = true;\r\n      fundContract(seller, sellerEscrowedFunds);\r\n    }\r\n    if (sellerHasFunded == true && buyerHasFunded == true) {\r\n      escrowFullyFunded = true;\r\n    } else {\r\n      escrowFullyFunded = false;\r\n    }\r\n  }\r\n  \r\n  function buyerFinalize() public {\r\n    require(msg.sender == buyer);\r\n    buyerfinalized = true;\r\n    emit PartyFinalized(msg.sender);\r\n    \r\n    if (sellerfinalized == true) {\r\n      return finalizeTrade();\r\n    }\r\n  }\r\n\r\n  function sellerFinalize() public {\r\n    require(msg.sender == seller);\r\n    sellerfinalized = true;\r\n    emit PartyFinalized(msg.sender);\r\n\r\n    if (buyerfinalized == true) {\r\n      return finalizeTrade();\r\n    }\r\n  }\r\n\r\n  function finalizeTrade() internal {\r\n    require(sellerHasFunded == true);\r\n    require(buyerHasFunded == true);\r\n\r\n    require(buyerfinalized == true);\r\n    require(sellerfinalized == true);\r\n\r\n    require(finalized == false);\r\n\r\n    uint forSeller = purchaseAmount + sellerEscrowedFunds;\r\n\r\n    uint forBuyer = buyerEscrowedFunds - purchaseAmount;\r\n\r\n    emit EscrowComplete(finalized, forBuyer, forSeller);\r\n\r\n    seller.transfer(forSeller);\r\n    buyer.transfer(forBuyer);\r\n\r\n    finalized = true;\r\n    selfdestruct(seller);\r\n  }\r\n}",
  "sourcePath": "C:\\Users\\91955\\dapp\\contracts\\Escrow.sol",
  "compiler": {
    "name": "solc",
    "version": "0.8.11+commit.d7f03943.Emscripten.clang"
  },
  "schemaVersion": "3.4.4",
  "updatedAt": "2022-04-19T18:49:40.937Z",
  "devdoc": {
    "kind": "dev",
    "methods": {},
    "version": 1
  },
  "userdoc": {
    "kind": "user",
    "methods": {},
    "version": 1
  }
}