{
  "contractName": "Escrow_optimised",
  "abi": [
    {
      "anonymous": false,
      "inputs": [
        {
          "indexed": false,
          "internalType": "bool",
          "name": "completed",
          "type": "bool"
        },
        {
          "indexed": false,
          "internalType": "uint256",
          "name": "buyerReceives",
          "type": "uint256"
        },
        {
          "indexed": false,
          "internalType": "uint256",
          "name": "sellerReceives",
          "type": "uint256"
        }
      ],
      "name": "EscrowComplete",
      "type": "event"
    },
    {
      "anonymous": false,
      "inputs": [
        {
          "indexed": false,
          "internalType": "address",
          "name": "sender",
          "type": "address"
        },
        {
          "indexed": false,
          "internalType": "uint256",
          "name": "amount",
          "type": "uint256"
        }
      ],
      "name": "FundsReceived",
      "type": "event"
    },
    {
      "anonymous": false,
      "inputs": [
        {
          "indexed": false,
          "internalType": "address",
          "name": "initiator",
          "type": "address"
        },
        {
          "indexed": false,
          "internalType": "address",
          "name": "buyer",
          "type": "address"
        },
        {
          "indexed": false,
          "internalType": "address",
          "name": "seller",
          "type": "address"
        },
        {
          "indexed": false,
          "internalType": "uint256",
          "name": "tradeFundsforXfer",
          "type": "uint256"
        }
      ],
      "name": "Initiated",
      "type": "event"
    },
    {
      "anonymous": false,
      "inputs": [
        {
          "indexed": false,
          "internalType": "address",
          "name": "party",
          "type": "address"
        }
      ],
      "name": "PartyFinalized",
      "type": "event"
    },
    {
      "anonymous": false,
      "inputs": [
        {
          "indexed": false,
          "internalType": "uint256",
          "name": "purchaseAmount",
          "type": "uint256"
        },
        {
          "indexed": false,
          "internalType": "uint256",
          "name": "totalEscrowAmount",
          "type": "uint256"
        },
        {
          "indexed": false,
          "internalType": "uint256",
          "name": "BuyerRequiredFunding",
          "type": "uint256"
        },
        {
          "indexed": false,
          "internalType": "uint256",
          "name": "SellerRequiredFunding",
          "type": "uint256"
        }
      ],
      "name": "Terms",
      "type": "event"
    },
    {
      "inputs": [],
      "name": "buyer",
      "outputs": [
        {
          "internalType": "address payable",
          "name": "",
          "type": "address"
        }
      ],
      "stateMutability": "view",
      "type": "function"
    },
    {
      "inputs": [],
      "name": "buyerEscrowedFunds",
      "outputs": [
        {
          "internalType": "uint256",
          "name": "",
          "type": "uint256"
        }
      ],
      "stateMutability": "view",
      "type": "function"
    },
    {
      "inputs": [],
      "name": "buyerHasFunded",
      "outputs": [
        {
          "internalType": "bool",
          "name": "",
          "type": "bool"
        }
      ],
      "stateMutability": "view",
      "type": "function"
    },
    {
      "inputs": [],
      "name": "buyerRequiredEscrow",
      "outputs": [
        {
          "internalType": "uint256",
          "name": "",
          "type": "uint256"
        }
      ],
      "stateMutability": "view",
      "type": "function"
    },
    {
      "inputs": [],
      "name": "buyerfinalized",
      "outputs": [
        {
          "internalType": "bool",
          "name": "",
          "type": "bool"
        }
      ],
      "stateMutability": "view",
      "type": "function"
    },
    {
      "inputs": [],
      "name": "escrowFullyFunded",
      "outputs": [
        {
          "internalType": "bool",
          "name": "",
          "type": "bool"
        }
      ],
      "stateMutability": "view",
      "type": "function"
    },
    {
      "inputs": [],
      "name": "finalized",
      "outputs": [
        {
          "internalType": "bool",
          "name": "",
          "type": "bool"
        }
      ],
      "stateMutability": "view",
      "type": "function"
    },
    {
      "inputs": [],
      "name": "initiated",
      "outputs": [
        {
          "internalType": "bool",
          "name": "",
          "type": "bool"
        }
      ],
      "stateMutability": "view",
      "type": "function"
    },
    {
      "inputs": [],
      "name": "mutualEscrowAmount",
      "outputs": [
        {
          "internalType": "uint256",
          "name": "",
          "type": "uint256"
        }
      ],
      "stateMutability": "view",
      "type": "function"
    },
    {
      "inputs": [],
      "name": "partyA",
      "outputs": [
        {
          "internalType": "address",
          "name": "",
          "type": "address"
        }
      ],
      "stateMutability": "view",
      "type": "function"
    },
    {
      "inputs": [],
      "name": "partyArequiredFunding",
      "outputs": [
        {
          "internalType": "uint256",
          "name": "",
          "type": "uint256"
        }
      ],
      "stateMutability": "view",
      "type": "function"
    },
    {
      "inputs": [],
      "name": "partyB",
      "outputs": [
        {
          "internalType": "address",
          "name": "",
          "type": "address"
        }
      ],
      "stateMutability": "view",
      "type": "function"
    },
    {
      "inputs": [],
      "name": "partyBrequiredFunding",
      "outputs": [
        {
          "internalType": "uint256",
          "name": "",
          "type": "uint256"
        }
      ],
      "stateMutability": "view",
      "type": "function"
    },
    {
      "inputs": [],
      "name": "purchaseAmount",
      "outputs": [
        {
          "internalType": "uint256",
          "name": "",
          "type": "uint256"
        }
      ],
      "stateMutability": "view",
      "type": "function"
    },
    {
      "inputs": [],
      "name": "purchaseAmountTotal",
      "outputs": [
        {
          "internalType": "uint256",
          "name": "",
          "type": "uint256"
        }
      ],
      "stateMutability": "view",
      "type": "function"
    },
    {
      "inputs": [],
      "name": "seller",
      "outputs": [
        {
          "internalType": "address payable",
          "name": "",
          "type": "address"
        }
      ],
      "stateMutability": "view",
      "type": "function"
    },
    {
      "inputs": [],
      "name": "sellerEscrowedFunds",
      "outputs": [
        {
          "internalType": "uint256",
          "name": "",
          "type": "uint256"
        }
      ],
      "stateMutability": "view",
      "type": "function"
    },
    {
      "inputs": [],
      "name": "sellerHasFunded",
      "outputs": [
        {
          "internalType": "bool",
          "name": "",
          "type": "bool"
        }
      ],
      "stateMutability": "view",
      "type": "function"
    },
    {
      "inputs": [],
      "name": "sellerRequiredEscrow",
      "outputs": [
        {
          "internalType": "uint256",
          "name": "",
          "type": "uint256"
        }
      ],
      "stateMutability": "view",
      "type": "function"
    },
    {
      "inputs": [],
      "name": "sellerfinalized",
      "outputs": [
        {
          "internalType": "bool",
          "name": "",
          "type": "bool"
        }
      ],
      "stateMutability": "view",
      "type": "function"
    },
    {
      "inputs": [],
      "name": "totalEscrowAmount",
      "outputs": [
        {
          "internalType": "uint256",
          "name": "",
          "type": "uint256"
        }
      ],
      "stateMutability": "view",
      "type": "function"
    },
    {
      "inputs": [
        {
          "internalType": "address payable",
          "name": "_buyer",
          "type": "address"
        },
        {
          "internalType": "address payable",
          "name": "_seller",
          "type": "address"
        },
        {
          "internalType": "uint256",
          "name": "_purchaseAmount",
          "type": "uint256"
        }
      ],
      "name": "EscrowFunc",
      "outputs": [],
      "stateMutability": "nonpayable",
      "type": "function"
    },
    {
      "inputs": [
        {
          "internalType": "address",
          "name": "_counterParty",
          "type": "address"
        },
        {
          "internalType": "uint256",
          "name": "_purchaseAmount",
          "type": "uint256"
        },
        {
          "internalType": "bool",
          "name": "_buyingNotSelling",
          "type": "bool"
        }
      ],
      "name": "Initiate",
      "outputs": [
        {
          "internalType": "bool",
          "name": "",
          "type": "bool"
        }
      ],
      "stateMutability": "nonpayable",
      "type": "function"
    },
    {
      "inputs": [
        {
          "internalType": "address",
          "name": "_funder",
          "type": "address"
        },
        {
          "internalType": "uint256",
          "name": "_amount",
          "type": "uint256"
        }
      ],
      "name": "fundContract",
      "outputs": [],
      "stateMutability": "nonpayable",
      "type": "function"
    },
    {
      "inputs": [],
      "name": "buyerFinalize",
      "outputs": [],
      "stateMutability": "nonpayable",
      "type": "function"
    },
    {
      "inputs": [],
      "name": "sellerFinalize",
      "outputs": [],
      "stateMutability": "nonpayable",
      "type": "function"
    }
  ],
  "bytecode": "0x60806040526000600160146101000a81548160ff0219169083151502179055506000600160156101000a81548160ff0219169083151502179055506000600d60146101000a81548160ff0219169083151502179055506000600d60156101000a81548160ff0219169083151502179055506000600d60166101000a81548160ff0219169083151502179055506000600d60176101000a81548160ff0219169083151502179055506000600d60186101000a81548160ff0219169083151502179055503480156100cd57600080fd5b50611694806100dd6000396000f3fe608060405234801561001057600080fd5b506004361061018e5760003560e01c80638d531682116100de578063b3f05b9711610097578063ee05189111610071578063ee051891146103fb578063f2a7d51b14610419578063f667329614610437578063fa7838fc146104555761018e565b8063b3f05b97146103b5578063bf4f2882146103d3578063c341853f146103dd5761018e565b80638d531682146103035780639801bfa6146103215780639f1185361461033f578063a40668b21461035d578063a8fc144e14610379578063ae916397146103975761018e565b806348a19ca71161014b5780636989ff81116101255780636989ff811461028b5780636b03fb00146102a95780637150d8ae146102c7578063819d1a3e146102e55761018e565b806348a19ca7146102455780634aa51e1a146102635780634f5f0dec1461026d5761018e565b806308551a53146101935780630c363fab146101b157806310e1d8ca146101cf5780631125f37b146101ed578063290401131461020b57806342e02fb414610229575b600080fd5b61019b610485565b6040516101a891906110fd565b60405180910390f35b6101b96104ab565b6040516101c69190611131565b60405180910390f35b6101d76104b1565b6040516101e4919061116d565b60405180910390f35b6101f56104d7565b60405161020291906111a3565b60405180910390f35b6102136104ea565b604051610220919061116d565b60405180910390f35b610243600480360381019061023e919061121b565b610510565b005b61024d61061c565b60405161025a9190611131565b60405180910390f35b61026b610622565b005b6102756106fa565b6040516102829190611131565b60405180910390f35b610293610700565b6040516102a09190611131565b60405180910390f35b6102b1610706565b6040516102be91906111a3565b60405180910390f35b6102cf610719565b6040516102dc91906110fd565b60405180910390f35b6102ed61073d565b6040516102fa9190611131565b60405180910390f35b61030b610743565b60405161031891906111a3565b60405180910390f35b610329610756565b6040516103369190611131565b60405180910390f35b61034761075c565b60405161035491906111a3565b60405180910390f35b61037760048036038101906103729190611287565b61076f565b005b610381610a9e565b60405161038e9190611131565b60405180910390f35b61039f610aa4565b6040516103ac9190611131565b60405180910390f35b6103bd610aaa565b6040516103ca91906111a3565b60405180910390f35b6103db610abd565b005b6103e5610b93565b6040516103f29190611131565b60405180910390f35b610403610b99565b6040516104109190611131565b60405180910390f35b610421610b9f565b60405161042e91906111a3565b60405180910390f35b61043f610bb2565b60405161044c91906111a3565b60405180910390f35b61046f600480360381019061046a9190611306565b610bc5565b60405161047c91906111a3565b60405180910390f35b600160009054906101000a900473ffffffffffffffffffffffffffffffffffffffff1681565b600a5481565b600c60009054906101000a900473ffffffffffffffffffffffffffffffffffffffff1681565b600d60189054906101000a900460ff1681565b600d60009054906101000a900473ffffffffffffffffffffffffffffffffffffffff1681565b60008054906101000a900473ffffffffffffffffffffffffffffffffffffffff1673ffffffffffffffffffffffffffffffffffffffff168273ffffffffffffffffffffffffffffffffffffffff1614801561056f575060035460065411155b1561058f576000600654905081816105879190611388565b600681905550505b600160009054906101000a900473ffffffffffffffffffffffffffffffffffffffff1673ffffffffffffffffffffffffffffffffffffffff168273ffffffffffffffffffffffffffffffffffffffff161480156105f0575060045460075411155b15610610576000600754905081816106089190611388565b600781905550505b610618610d68565b5050565b600b5481565b600160009054906101000a900473ffffffffffffffffffffffffffffffffffffffff1673ffffffffffffffffffffffffffffffffffffffff163373ffffffffffffffffffffffffffffffffffffffff161461067c57600080fd5b6001600d60186101000a81548160ff0219169083151502179055507f68b2e274177a5387b8318d5676b1c276abf858756d303d3a6c253ff3515944f2336040516106c6919061116d565b60405180910390a160011515600d60179054906101000a900460ff16151514156106f7576106f2610e89565b6106f8565b5b565b60035481565b60095481565b600d60179054906101000a900460ff1681565b60008054906101000a900473ffffffffffffffffffffffffffffffffffffffff1681565b60075481565b600d60169054906101000a900460ff1681565b60085481565b600160149054906101000a900460ff1681565b600073ffffffffffffffffffffffffffffffffffffffff168273ffffffffffffffffffffffffffffffffffffffff16141580156107d95750600073ffffffffffffffffffffffffffffffffffffffff168373ffffffffffffffffffffffffffffffffffffffff1614155b801561081157508173ffffffffffffffffffffffffffffffffffffffff168373ffffffffffffffffffffffffffffffffffffffff1614155b801561087e57508173ffffffffffffffffffffffffffffffffffffffff163373ffffffffffffffffffffffffffffffffffffffff16148061087d57508273ffffffffffffffffffffffffffffffffffffffff163373ffffffffffffffffffffffffffffffffffffffff16145b5b801561088b575060008114155b6108ca576040517f08c379a00000000000000000000000000000000000000000000000000000000081526004016108c190611461565b60405180910390fd5b6000600d60166101000a81548160ff021916908315150217905550826000806101000a81548173ffffffffffffffffffffffffffffffffffffffff021916908373ffffffffffffffffffffffffffffffffffffffff16021790555081600160006101000a81548173ffffffffffffffffffffffffffffffffffffffff021916908373ffffffffffffffffffffffffffffffffffffffff16021790555060018060146101000a81548160ff02191690831515021790555060028161098d9190611481565b600381905550806004819055506003816109a79190611481565b600581905550806002819055506004546003546109c49190611388565b600554146109d5576109d46114db565b5b7f481925be43dc1ea1406c8639bb61697816d24e9e3899052a4e8ee218e7a0eb363360008054906101000a900473ffffffffffffffffffffffffffffffffffffffff16600160009054906101000a900473ffffffffffffffffffffffffffffffffffffffff1684604051610a4c9493929190611569565b60405180910390a17f69759e3659bae3d5a28e2aa3aa80c6ec1ef6a035a6c807b988615f144959925a600254600554600354600454604051610a9194939291906115ae565b60405180910390a1505050565b60065481565b60055481565b600160159054906101000a900460ff1681565b60008054906101000a900473ffffffffffffffffffffffffffffffffffffffff1673ffffffffffffffffffffffffffffffffffffffff163373ffffffffffffffffffffffffffffffffffffffff1614610b1557600080fd5b6001600d60176101000a81548160ff0219169083151502179055507f68b2e274177a5387b8318d5676b1c276abf858756d303d3a6c253ff3515944f233604051610b5f919061116d565b60405180910390a160011515600d60189054906101000a900460ff1615151415610b9057610b8b610e89565b610b91565b5b565b60025481565b60045481565b600d60149054906101000a900460ff1681565b600d60159054906101000a900460ff1681565b600082600881905550600383610bdb9190611481565b600b81905550600115158215151415610c8f5733600c60006101000a81548173ffffffffffffffffffffffffffffffffffffffff021916908373ffffffffffffffffffffffffffffffffffffffff16021790555083600d60006101000a81548173ffffffffffffffffffffffffffffffffffffffff021916908373ffffffffffffffffffffffffffffffffffffffff160217905550600283610c7d9190611481565b60098190555082600a81905550610d43565b600015158215151415610d3d5783600c60006101000a81548173ffffffffffffffffffffffffffffffffffffffff021916908373ffffffffffffffffffffffffffffffffffffffff16021790555033600d60006101000a81548173ffffffffffffffffffffffffffffffffffffffff021916908373ffffffffffffffffffffffffffffffffffffffff16021790555082600981905550600283610d329190611481565b600a81905550610d42565b600080fd5b5b60018060146101000a81548160ff021916908315150217905550600190509392505050565b60035460065410610dbb576001600d60146101000a81548160ff021916908315150217905550610dba60008054906101000a900473ffffffffffffffffffffffffffffffffffffffff16600654610510565b5b60045460075410610e10576001600d60156101000a81548160ff021916908315150217905550610e0f600160009054906101000a900473ffffffffffffffffffffffffffffffffffffffff16600754610510565b5b60011515600d60159054906101000a900460ff161515148015610e46575060011515600d60149054906101000a900460ff161515145b15610e6b576001600d60166101000a81548160ff021916908315150217905550610e87565b6000600d60166101000a81548160ff0219169083151502179055505b565b60011515600d60159054906101000a900460ff161515148015610ebf575060011515600d60149054906101000a900460ff161515145b8015610ede575060011515600d60179054906101000a900460ff161515145b8015610efd575060011515600d60189054906101000a900460ff161515145b8015610f1c575060001515600160159054906101000a900460ff161515145b610f2557600080fd5b6000600754600254610f379190611388565b90506000600254600654610f4b91906115f3565b90507f6d2d1cef1901e61bd791b41ebbf61bcc142915be4255d75d796211fd63de9e52600160159054906101000a900460ff168284604051610f8f93929190611627565b60405180910390a1600160009054906101000a900473ffffffffffffffffffffffffffffffffffffffff1673ffffffffffffffffffffffffffffffffffffffff166108fc839081150290604051600060405180830381858888f19350505050158015610fff573d6000803e3d6000fd5b5060008054906101000a900473ffffffffffffffffffffffffffffffffffffffff1673ffffffffffffffffffffffffffffffffffffffff166108fc829081150290604051600060405180830381858888f19350505050158015611066573d6000803e3d6000fd5b5060018060156101000a81548160ff021916908315150217905550600160009054906101000a900473ffffffffffffffffffffffffffffffffffffffff1673ffffffffffffffffffffffffffffffffffffffff16ff5b600073ffffffffffffffffffffffffffffffffffffffff82169050919050565b60006110e7826110bc565b9050919050565b6110f7816110dc565b82525050565b600060208201905061111260008301846110ee565b92915050565b6000819050919050565b61112b81611118565b82525050565b60006020820190506111466000830184611122565b92915050565b6000611157826110bc565b9050919050565b6111678161114c565b82525050565b6000602082019050611182600083018461115e565b92915050565b60008115159050919050565b61119d81611188565b82525050565b60006020820190506111b86000830184611194565b92915050565b600080fd5b6111cc8161114c565b81146111d757600080fd5b50565b6000813590506111e9816111c3565b92915050565b6111f881611118565b811461120357600080fd5b50565b600081359050611215816111ef565b92915050565b60008060408385031215611232576112316111be565b5b6000611240858286016111da565b925050602061125185828601611206565b9150509250929050565b611264816110dc565b811461126f57600080fd5b50565b6000813590506112818161125b565b92915050565b6000806000606084860312156112a05761129f6111be565b5b60006112ae86828701611272565b93505060206112bf86828701611272565b92505060406112d086828701611206565b9150509250925092565b6112e381611188565b81146112ee57600080fd5b50565b600081359050611300816112da565b92915050565b60008060006060848603121561131f5761131e6111be565b5b600061132d868287016111da565b935050602061133e86828701611206565b925050604061134f868287016112f1565b9150509250925092565b7f4e487b7100000000000000000000000000000000000000000000000000000000600052601160045260246000fd5b600061139382611118565b915061139e83611118565b9250827fffffffffffffffffffffffffffffffffffffffffffffffffffffffffffffffff038211156113d3576113d2611359565b5b828201905092915050565b600082825260208201905092915050565b7f53656c6c657220616e6420627579657220617265206e6f74207468652073616d60008201527f652e000000000000000000000000000000000000000000000000000000000000602082015250565b600061144b6022836113de565b9150611456826113ef565b604082019050919050565b6000602082019050818103600083015261147a8161143e565b9050919050565b600061148c82611118565b915061149783611118565b9250817fffffffffffffffffffffffffffffffffffffffffffffffffffffffffffffffff04831182151516156114d0576114cf611359565b5b828202905092915050565b7f4e487b7100000000000000000000000000000000000000000000000000000000600052600160045260246000fd5b6000819050919050565b600061152f61152a611525846110bc565b61150a565b6110bc565b9050919050565b600061154182611514565b9050919050565b600061155382611536565b9050919050565b61156381611548565b82525050565b600060808201905061157e600083018761115e565b61158b602083018661155a565b611598604083018561155a565b6115a56060830184611122565b95945050505050565b60006080820190506115c36000830187611122565b6115d06020830186611122565b6115dd6040830185611122565b6115ea6060830184611122565b95945050505050565b60006115fe82611118565b915061160983611118565b92508282101561161c5761161b611359565b5b828203905092915050565b600060608201905061163c6000830186611194565b6116496020830185611122565b6116566040830184611122565b94935050505056fea264697066735822122039c50a739622345f8a6d71e39cb9637ff391c45aaecb82f469b66b2b49ab1c9c64736f6c634300080b0033",
  "immutableReferences": {},
  "source": "// SPDX-License-Identifier: MIT\r\npragma solidity >=0.4.22 <0.9.0;\r\n\r\ncontract Escrow_optimised {\r\n\r\n  address payable public buyer;\r\n  address payable public seller; \r\n\r\n  bool public initiated = false;\r\n  bool public finalized = false;\r\n\r\n  // 1: Packing variables into a single slot\r\n  uint public purchaseAmount;\r\n  uint public buyerRequiredEscrow;\r\n  uint public sellerRequiredEscrow;\r\n  uint public totalEscrowAmount;\r\n  uint public buyerEscrowedFunds;\r\n  uint public sellerEscrowedFunds;\r\n  uint256 public purchaseAmountTotal;\r\n  uint256 public partyArequiredFunding; \r\n  uint256 public partyBrequiredFunding;\r\n  uint256 public mutualEscrowAmount;\r\n\r\n  address public partyA; //BUYER\r\n  address public partyB; //SELLER\r\n\r\n  bool public buyerHasFunded = false;\r\n  bool public sellerHasFunded = false;\r\n\r\n  bool public escrowFullyFunded = false;\r\n\r\n  bool public buyerfinalized = false;\r\n  bool public sellerfinalized = false;\r\n\r\n  event Terms(uint purchaseAmount, uint totalEscrowAmount, uint BuyerRequiredFunding, uint SellerRequiredFunding);\r\n  event Initiated(address initiator, address buyer, address seller, uint tradeFundsforXfer);\r\n  event FundsReceived(address sender, uint amount);\r\n  event PartyFinalized(address party);\r\n  event EscrowComplete(bool completed, uint buyerReceives, uint sellerReceives);\r\n\r\n  function EscrowFunc(\r\n    address payable _buyer,\r\n    address payable _seller,\r\n    uint _purchaseAmount\r\n  ) public {\r\n \r\n    require((_seller != address(0)) && (_buyer != address(0)) && (_buyer != _seller) && (msg.sender == _seller || msg.sender == _buyer) && (_purchaseAmount != 0) , \"Seller and buyer are not the same.\");\r\n\r\n\r\n    escrowFullyFunded = false;\r\n\r\n    buyer = _buyer; \r\n    seller = _seller; \r\n\r\n    initiated = true;\r\n\r\n    buyerRequiredEscrow = _purchaseAmount * 2;\r\n    sellerRequiredEscrow = _purchaseAmount;\r\n    totalEscrowAmount = _purchaseAmount * 3;\r\n    purchaseAmount = _purchaseAmount;\r\n\r\n    assert(totalEscrowAmount == (buyerRequiredEscrow + sellerRequiredEscrow));\r\n\r\n    emit Initiated(msg.sender, buyer, seller, _purchaseAmount);\r\n    emit Terms(purchaseAmount, totalEscrowAmount, buyerRequiredEscrow, sellerRequiredEscrow);\r\n  }\r\n\r\n  function Initiate(\r\n    address _counterParty,\r\n    uint256 _purchaseAmount,\r\n    bool _buyingNotSelling // TRUE if Buyer; FALSE if seller;\r\n  )\r\n  public returns\r\n  (bool) {\r\n    purchaseAmountTotal = _purchaseAmount;\r\n    mutualEscrowAmount = _purchaseAmount * 3;\r\n \r\n    if (_buyingNotSelling == true) {\r\n      partyA = msg.sender; //Buyer\r\n      partyB = _counterParty; //Seller\r\n      partyArequiredFunding = _purchaseAmount * 2;\r\n      partyBrequiredFunding = _purchaseAmount;\r\n \r\n \r\n    } else if (_buyingNotSelling == false) {\r\n      partyA = _counterParty; //Buyer\r\n      partyB = msg.sender; //Seller\r\n      partyArequiredFunding = _purchaseAmount;\r\n      partyBrequiredFunding = _purchaseAmount * 2;\r\n \r\n    } else {\r\n      revert(); // Fallback\r\n    }\r\n \r\n    initiated = true;\r\n    return true;\r\n  }\r\n\r\n  function fundContract(address _funder, uint _amount) public {\r\n    if (_funder == buyer && buyerEscrowedFunds <= buyerRequiredEscrow) {\r\n      uint buyerCurrentFunds = buyerEscrowedFunds;\r\n      buyerEscrowedFunds = buyerCurrentFunds + _amount;\r\n    } \r\n    if (_funder == seller && sellerEscrowedFunds <= sellerRequiredEscrow) {\r\n      uint sellerCurrentFunds = sellerEscrowedFunds;\r\n      sellerEscrowedFunds = sellerCurrentFunds + _amount;\r\n    }\r\n    checkFundingStatus();\r\n  }\r\n\r\n     \r\n  function checkFundingStatus() internal {\r\n    if (buyerEscrowedFunds >= buyerRequiredEscrow) {\r\n      buyerHasFunded = true;\r\n      fundContract(buyer, buyerEscrowedFunds);\r\n    }\r\n    if (sellerEscrowedFunds >= sellerRequiredEscrow) {\r\n      sellerHasFunded = true;\r\n      fundContract(seller, sellerEscrowedFunds);\r\n    }\r\n    if (sellerHasFunded == true && buyerHasFunded == true) {\r\n      escrowFullyFunded = true;\r\n    } else {\r\n      escrowFullyFunded = false;\r\n    }\r\n  }\r\n  \r\n  function buyerFinalize() public {\r\n    require(msg.sender == buyer);\r\n    buyerfinalized = true;\r\n    emit PartyFinalized(msg.sender);\r\n    \r\n    if (sellerfinalized == true) {\r\n      return finalizeTrade();\r\n    }\r\n  }\r\n\r\n  function sellerFinalize() public {\r\n    require(msg.sender == seller);\r\n    sellerfinalized = true;\r\n    emit PartyFinalized(msg.sender);\r\n\r\n    if (buyerfinalized == true) {\r\n      return finalizeTrade();\r\n    }\r\n  }\r\n\r\n  function finalizeTrade() internal {\r\n    require((sellerHasFunded == true) && (buyerHasFunded == true) && (buyerfinalized == true) && (sellerfinalized == true) && (finalized == false));\r\n\r\n\r\n    uint forSeller = purchaseAmount + sellerEscrowedFunds;\r\n\r\n    uint forBuyer = buyerEscrowedFunds - purchaseAmount;\r\n\r\n    emit EscrowComplete(finalized, forBuyer, forSeller);\r\n\r\n    seller.transfer(forSeller);\r\n    buyer.transfer(forBuyer);\r\n\r\n    finalized = true;\r\n    selfdestruct(seller);\r\n  }\r\n}",
  "sourcePath": "C:\\Users\\91955\\dapp\\contracts\\Escrow_gas.sol",
  "compiler": {
    "name": "solc",
    "version": "0.8.11+commit.d7f03943.Emscripten.clang"
  },
  "schemaVersion": "3.4.4",
  "updatedAt": "2022-04-19T18:49:40.954Z",
  "devdoc": {
    "kind": "dev",
    "methods": {},
    "version": 1
  },
  "userdoc": {
    "kind": "user",
    "methods": {},
    "version": 1
  }
}