{
  "contractName": "Escrow_gas",
  "abi": [
    {
      "anonymous": false,
      "inputs": [
        {
          "indexed": false,
          "internalType": "bool",
          "name": "completed",
          "type": "bool"
        },
        {
          "indexed": false,
          "internalType": "uint256",
          "name": "buyerReceives",
          "type": "uint256"
        },
        {
          "indexed": false,
          "internalType": "uint256",
          "name": "sellerReceives",
          "type": "uint256"
        }
      ],
      "name": "EscrowComplete",
      "type": "event"
    },
    {
      "anonymous": false,
      "inputs": [
        {
          "indexed": false,
          "internalType": "address",
          "name": "sender",
          "type": "address"
        },
        {
          "indexed": false,
          "internalType": "uint256",
          "name": "amount",
          "type": "uint256"
        }
      ],
      "name": "FundsReceived",
      "type": "event"
    },
    {
      "anonymous": false,
      "inputs": [
        {
          "indexed": false,
          "internalType": "address",
          "name": "initiator",
          "type": "address"
        },
        {
          "indexed": false,
          "internalType": "address",
          "name": "buyer",
          "type": "address"
        },
        {
          "indexed": false,
          "internalType": "address",
          "name": "seller",
          "type": "address"
        },
        {
          "indexed": false,
          "internalType": "uint256",
          "name": "tradeFundsforXfer",
          "type": "uint256"
        }
      ],
      "name": "Initiated",
      "type": "event"
    },
    {
      "anonymous": false,
      "inputs": [
        {
          "indexed": false,
          "internalType": "address",
          "name": "party",
          "type": "address"
        }
      ],
      "name": "PartyFinalized",
      "type": "event"
    },
    {
      "anonymous": false,
      "inputs": [
        {
          "indexed": false,
          "internalType": "uint256",
          "name": "purchaseAmount",
          "type": "uint256"
        },
        {
          "indexed": false,
          "internalType": "uint256",
          "name": "totalEscrowAmount",
          "type": "uint256"
        },
        {
          "indexed": false,
          "internalType": "uint256",
          "name": "BuyerRequiredFunding",
          "type": "uint256"
        },
        {
          "indexed": false,
          "internalType": "uint256",
          "name": "SellerRequiredFunding",
          "type": "uint256"
        }
      ],
      "name": "Terms",
      "type": "event"
    },
    {
      "inputs": [],
      "name": "buyer",
      "outputs": [
        {
          "internalType": "address payable",
          "name": "",
          "type": "address"
        }
      ],
      "stateMutability": "view",
      "type": "function",
      "constant": true
    },
    {
      "inputs": [],
      "name": "buyerEscrowedFunds",
      "outputs": [
        {
          "internalType": "uint256",
          "name": "",
          "type": "uint256"
        }
      ],
      "stateMutability": "view",
      "type": "function",
      "constant": true
    },
    {
      "inputs": [],
      "name": "buyerHasFunded",
      "outputs": [
        {
          "internalType": "bool",
          "name": "",
          "type": "bool"
        }
      ],
      "stateMutability": "view",
      "type": "function",
      "constant": true
    },
    {
      "inputs": [],
      "name": "buyerRequiredEscrow",
      "outputs": [
        {
          "internalType": "uint256",
          "name": "",
          "type": "uint256"
        }
      ],
      "stateMutability": "view",
      "type": "function",
      "constant": true
    },
    {
      "inputs": [],
      "name": "buyerfinalized",
      "outputs": [
        {
          "internalType": "bool",
          "name": "",
          "type": "bool"
        }
      ],
      "stateMutability": "view",
      "type": "function",
      "constant": true
    },
    {
      "inputs": [],
      "name": "escrowFullyFunded",
      "outputs": [
        {
          "internalType": "bool",
          "name": "",
          "type": "bool"
        }
      ],
      "stateMutability": "view",
      "type": "function",
      "constant": true
    },
    {
      "inputs": [],
      "name": "finalized",
      "outputs": [
        {
          "internalType": "bool",
          "name": "",
          "type": "bool"
        }
      ],
      "stateMutability": "view",
      "type": "function",
      "constant": true
    },
    {
      "inputs": [],
      "name": "initiated",
      "outputs": [
        {
          "internalType": "bool",
          "name": "",
          "type": "bool"
        }
      ],
      "stateMutability": "view",
      "type": "function",
      "constant": true
    },
    {
      "inputs": [],
      "name": "mutualEscrowAmount",
      "outputs": [
        {
          "internalType": "uint256",
          "name": "",
          "type": "uint256"
        }
      ],
      "stateMutability": "view",
      "type": "function",
      "constant": true
    },
    {
      "inputs": [],
      "name": "partyA",
      "outputs": [
        {
          "internalType": "address",
          "name": "",
          "type": "address"
        }
      ],
      "stateMutability": "view",
      "type": "function",
      "constant": true
    },
    {
      "inputs": [],
      "name": "partyArequiredFunding",
      "outputs": [
        {
          "internalType": "uint256",
          "name": "",
          "type": "uint256"
        }
      ],
      "stateMutability": "view",
      "type": "function",
      "constant": true
    },
    {
      "inputs": [],
      "name": "partyB",
      "outputs": [
        {
          "internalType": "address",
          "name": "",
          "type": "address"
        }
      ],
      "stateMutability": "view",
      "type": "function",
      "constant": true
    },
    {
      "inputs": [],
      "name": "partyBrequiredFunding",
      "outputs": [
        {
          "internalType": "uint256",
          "name": "",
          "type": "uint256"
        }
      ],
      "stateMutability": "view",
      "type": "function",
      "constant": true
    },
    {
      "inputs": [],
      "name": "purchaseAmount",
      "outputs": [
        {
          "internalType": "uint256",
          "name": "",
          "type": "uint256"
        }
      ],
      "stateMutability": "view",
      "type": "function",
      "constant": true
    },
    {
      "inputs": [],
      "name": "purchaseAmountTotal",
      "outputs": [
        {
          "internalType": "uint256",
          "name": "",
          "type": "uint256"
        }
      ],
      "stateMutability": "view",
      "type": "function",
      "constant": true
    },
    {
      "inputs": [],
      "name": "seller",
      "outputs": [
        {
          "internalType": "address payable",
          "name": "",
          "type": "address"
        }
      ],
      "stateMutability": "view",
      "type": "function",
      "constant": true
    },
    {
      "inputs": [],
      "name": "sellerEscrowedFunds",
      "outputs": [
        {
          "internalType": "uint256",
          "name": "",
          "type": "uint256"
        }
      ],
      "stateMutability": "view",
      "type": "function",
      "constant": true
    },
    {
      "inputs": [],
      "name": "sellerHasFunded",
      "outputs": [
        {
          "internalType": "bool",
          "name": "",
          "type": "bool"
        }
      ],
      "stateMutability": "view",
      "type": "function",
      "constant": true
    },
    {
      "inputs": [],
      "name": "sellerRequiredEscrow",
      "outputs": [
        {
          "internalType": "uint256",
          "name": "",
          "type": "uint256"
        }
      ],
      "stateMutability": "view",
      "type": "function",
      "constant": true
    },
    {
      "inputs": [],
      "name": "sellerfinalized",
      "outputs": [
        {
          "internalType": "bool",
          "name": "",
          "type": "bool"
        }
      ],
      "stateMutability": "view",
      "type": "function",
      "constant": true
    },
    {
      "inputs": [],
      "name": "totalEscrowAmount",
      "outputs": [
        {
          "internalType": "uint256",
          "name": "",
          "type": "uint256"
        }
      ],
      "stateMutability": "view",
      "type": "function",
      "constant": true
    },
    {
      "inputs": [
        {
          "internalType": "address payable",
          "name": "_buyer",
          "type": "address"
        },
        {
          "internalType": "address payable",
          "name": "_seller",
          "type": "address"
        },
        {
          "internalType": "uint256",
          "name": "_purchaseAmount",
          "type": "uint256"
        }
      ],
      "name": "EscrowFunc",
      "outputs": [],
      "stateMutability": "nonpayable",
      "type": "function"
    },
    {
      "inputs": [
        {
          "internalType": "address",
          "name": "_counterParty",
          "type": "address"
        },
        {
          "internalType": "uint256",
          "name": "_purchaseAmount",
          "type": "uint256"
        },
        {
          "internalType": "bool",
          "name": "_buyingNotSelling",
          "type": "bool"
        }
      ],
      "name": "Initiate",
      "outputs": [
        {
          "internalType": "bool",
          "name": "",
          "type": "bool"
        }
      ],
      "stateMutability": "nonpayable",
      "type": "function"
    },
    {
      "inputs": [
        {
          "internalType": "address",
          "name": "_funder",
          "type": "address"
        },
        {
          "internalType": "uint256",
          "name": "_amount",
          "type": "uint256"
        }
      ],
      "name": "fundContract",
      "outputs": [],
      "stateMutability": "nonpayable",
      "type": "function"
    },
    {
      "inputs": [],
      "name": "buyerFinalize",
      "outputs": [],
      "stateMutability": "nonpayable",
      "type": "function"
    },
    {
      "inputs": [],
      "name": "sellerFinalize",
      "outputs": [],
      "stateMutability": "nonpayable",
      "type": "function"
    }
  ],
  "bytecode": "0x608060405260006002556000600360006101000a81548160ff0219169083151502179055506000600360016101000a81548160ff021916908315150217905550600060045560006005556000600655600060075560006008556000600f60006101000a81548160ff0219169083151502179055506000600f60016101000a81548160ff0219169083151502179055506000600f60026101000a81548160ff0219169083151502179055506000600f60036101000a81548160ff0219169083151502179055506000600f60046101000a81548160ff0219169083151502179055503480156100eb57600080fd5b506115c5806100fb6000396000f3fe608060405234801561001057600080fd5b506004361061018e5760003560e01c80638d531682116100de578063b3f05b9711610097578063ee05189111610071578063ee051891146103fb578063f2a7d51b14610419578063f667329614610437578063fa7838fc146104555761018e565b8063b3f05b97146103b5578063bf4f2882146103d3578063c341853f146103dd5761018e565b80638d531682146103035780639801bfa6146103215780639f1185361461033f578063a40668b21461035d578063a8fc144e14610379578063ae916397146103975761018e565b806348a19ca71161014b5780636989ff81116101255780636989ff811461028b5780636b03fb00146102a95780637150d8ae146102c7578063819d1a3e146102e55761018e565b806348a19ca7146102455780634aa51e1a146102635780634f5f0dec1461026d5761018e565b806308551a53146101935780630c363fab146101b157806310e1d8ca146101cf5780631125f37b146101ed578063290401131461020b57806342e02fb414610229575b600080fd5b61019b610485565b6040516101a891906110d1565b60405180910390f35b6101b96104ab565b6040516101c69190611105565b60405180910390f35b6101d76104b1565b6040516101e49190611141565b60405180910390f35b6101f56104d7565b6040516102029190611177565b60405180910390f35b6102136104ea565b6040516102209190611141565b60405180910390f35b610243600480360381019061023e91906111ef565b610510565b005b61024d61061c565b60405161025a9190611105565b60405180910390f35b61026b610622565b005b6102756106fa565b6040516102829190611105565b60405180910390f35b610293610700565b6040516102a09190611105565b60405180910390f35b6102b1610706565b6040516102be9190611177565b60405180910390f35b6102cf610719565b6040516102dc91906110d1565b60405180910390f35b6102ed61073d565b6040516102fa9190611105565b60405180910390f35b61030b610743565b6040516103189190611177565b60405180910390f35b610329610756565b6040516103369190611105565b60405180910390f35b61034761075c565b6040516103549190611177565b60405180910390f35b6103776004803603810190610372919061125b565b61076f565b005b610381610a6c565b60405161038e9190611105565b60405180910390f35b61039f610a72565b6040516103ac9190611105565b60405180910390f35b6103bd610a78565b6040516103ca9190611177565b60405180910390f35b6103db610a8b565b005b6103e5610b61565b6040516103f29190611105565b60405180910390f35b610403610b67565b6040516104109190611105565b60405180910390f35b610421610b6d565b60405161042e9190611177565b60405180910390f35b61043f610b80565b60405161044c9190611177565b60405180910390f35b61046f600480360381019061046a91906112da565b610b93565b60405161047c9190611177565b60405180910390f35b600160009054906101000a900473ffffffffffffffffffffffffffffffffffffffff1681565b600b5481565b600c60009054906101000a900473ffffffffffffffffffffffffffffffffffffffff1681565b600f60049054906101000a900460ff1681565b600d60009054906101000a900473ffffffffffffffffffffffffffffffffffffffff1681565b60008054906101000a900473ffffffffffffffffffffffffffffffffffffffff1673ffffffffffffffffffffffffffffffffffffffff168273ffffffffffffffffffffffffffffffffffffffff1614801561056f575060045460075411155b1561058f57600060075490508181610587919061135c565b600781905550505b600160009054906101000a900473ffffffffffffffffffffffffffffffffffffffff1673ffffffffffffffffffffffffffffffffffffffff168273ffffffffffffffffffffffffffffffffffffffff161480156105f0575060055460085411155b1561061057600060085490508181610608919061135c565b600881905550505b610618610d37565b5050565b600e5481565b600160009054906101000a900473ffffffffffffffffffffffffffffffffffffffff1673ffffffffffffffffffffffffffffffffffffffff163373ffffffffffffffffffffffffffffffffffffffff161461067c57600080fd5b6001600f60046101000a81548160ff0219169083151502179055507f68b2e274177a5387b8318d5676b1c276abf858756d303d3a6c253ff3515944f2336040516106c69190611141565b60405180910390a160011515600f60039054906101000a900460ff16151514156106f7576106f2610e58565b6106f8565b5b565b60045481565b600a5481565b600f60039054906101000a900460ff1681565b60008054906101000a900473ffffffffffffffffffffffffffffffffffffffff1681565b60085481565b600f60029054906101000a900460ff1681565b60095481565b600360009054906101000a900460ff1681565b600073ffffffffffffffffffffffffffffffffffffffff168273ffffffffffffffffffffffffffffffffffffffff1614156107a957600080fd5b600073ffffffffffffffffffffffffffffffffffffffff168373ffffffffffffffffffffffffffffffffffffffff1614156107e357600080fd5b8173ffffffffffffffffffffffffffffffffffffffff168373ffffffffffffffffffffffffffffffffffffffff16141561081c57600080fd5b8173ffffffffffffffffffffffffffffffffffffffff163373ffffffffffffffffffffffffffffffffffffffff16148061088157508273ffffffffffffffffffffffffffffffffffffffff163373ffffffffffffffffffffffffffffffffffffffff16145b61088a57600080fd5b6000811161089757600080fd5b6000600f60026101000a81548160ff021916908315150217905550826000806101000a81548173ffffffffffffffffffffffffffffffffffffffff021916908373ffffffffffffffffffffffffffffffffffffffff16021790555081600160006101000a81548173ffffffffffffffffffffffffffffffffffffffff021916908373ffffffffffffffffffffffffffffffffffffffff1602179055506001600360006101000a81548160ff02191690831515021790555060028161095b91906113b2565b6004819055508060058190555060038161097591906113b2565b60068190555080600281905550600554600454610992919061135c565b600654146109a3576109a261140c565b5b7f481925be43dc1ea1406c8639bb61697816d24e9e3899052a4e8ee218e7a0eb363360008054906101000a900473ffffffffffffffffffffffffffffffffffffffff16600160009054906101000a900473ffffffffffffffffffffffffffffffffffffffff1684604051610a1a949392919061149a565b60405180910390a17f69759e3659bae3d5a28e2aa3aa80c6ec1ef6a035a6c807b988615f144959925a600254600654600454600554604051610a5f94939291906114df565b60405180910390a1505050565b60075481565b60065481565b600360019054906101000a900460ff1681565b60008054906101000a900473ffffffffffffffffffffffffffffffffffffffff1673ffffffffffffffffffffffffffffffffffffffff163373ffffffffffffffffffffffffffffffffffffffff1614610ae357600080fd5b6001600f60036101000a81548160ff0219169083151502179055507f68b2e274177a5387b8318d5676b1c276abf858756d303d3a6c253ff3515944f233604051610b2d9190611141565b60405180910390a160011515600f60049054906101000a900460ff1615151415610b5e57610b59610e58565b610b5f565b5b565b60025481565b60055481565b600f60009054906101000a900460ff1681565b600f60019054906101000a900460ff1681565b600082600981905550600383610ba991906113b2565b600e81905550600115158215151415610c5d5733600c60006101000a81548173ffffffffffffffffffffffffffffffffffffffff021916908373ffffffffffffffffffffffffffffffffffffffff16021790555083600d60006101000a81548173ffffffffffffffffffffffffffffffffffffffff021916908373ffffffffffffffffffffffffffffffffffffffff160217905550600283610c4b91906113b2565b600a8190555082600b81905550610d11565b600015158215151415610d0b5783600c60006101000a81548173ffffffffffffffffffffffffffffffffffffffff021916908373ffffffffffffffffffffffffffffffffffffffff16021790555033600d60006101000a81548173ffffffffffffffffffffffffffffffffffffffff021916908373ffffffffffffffffffffffffffffffffffffffff16021790555082600a81905550600283610d0091906113b2565b600b81905550610d10565b600080fd5b5b6001600360006101000a81548160ff021916908315150217905550600190509392505050565b60045460075410610d8a576001600f60006101000a81548160ff021916908315150217905550610d8960008054906101000a900473ffffffffffffffffffffffffffffffffffffffff16600754610510565b5b60055460085410610ddf576001600f60016101000a81548160ff021916908315150217905550610dde600160009054906101000a900473ffffffffffffffffffffffffffffffffffffffff16600854610510565b5b60011515600f60019054906101000a900460ff161515148015610e15575060011515600f60009054906101000a900460ff161515145b15610e3a576001600f60026101000a81548160ff021916908315150217905550610e56565b6000600f60026101000a81548160ff0219169083151502179055505b565b60011515600f60019054906101000a900460ff16151514610e7857600080fd5b60011515600f60009054906101000a900460ff16151514610e9857600080fd5b60011515600f60039054906101000a900460ff16151514610eb857600080fd5b60011515600f60049054906101000a900460ff16151514610ed857600080fd5b60001515600360019054906101000a900460ff16151514610ef857600080fd5b6000600854600254610f0a919061135c565b90506000600254600754610f1e9190611524565b90507f6d2d1cef1901e61bd791b41ebbf61bcc142915be4255d75d796211fd63de9e52600360019054906101000a900460ff168284604051610f6293929190611558565b60405180910390a1600160009054906101000a900473ffffffffffffffffffffffffffffffffffffffff1673ffffffffffffffffffffffffffffffffffffffff166108fc839081150290604051600060405180830381858888f19350505050158015610fd2573d6000803e3d6000fd5b5060008054906101000a900473ffffffffffffffffffffffffffffffffffffffff1673ffffffffffffffffffffffffffffffffffffffff166108fc829081150290604051600060405180830381858888f19350505050158015611039573d6000803e3d6000fd5b506001600360016101000a81548160ff021916908315150217905550600160009054906101000a900473ffffffffffffffffffffffffffffffffffffffff1673ffffffffffffffffffffffffffffffffffffffff16ff5b600073ffffffffffffffffffffffffffffffffffffffff82169050919050565b60006110bb82611090565b9050919050565b6110cb816110b0565b82525050565b60006020820190506110e660008301846110c2565b92915050565b6000819050919050565b6110ff816110ec565b82525050565b600060208201905061111a60008301846110f6565b92915050565b600061112b82611090565b9050919050565b61113b81611120565b82525050565b60006020820190506111566000830184611132565b92915050565b60008115159050919050565b6111718161115c565b82525050565b600060208201905061118c6000830184611168565b92915050565b600080fd5b6111a081611120565b81146111ab57600080fd5b50565b6000813590506111bd81611197565b92915050565b6111cc816110ec565b81146111d757600080fd5b50565b6000813590506111e9816111c3565b92915050565b6000806040838503121561120657611205611192565b5b6000611214858286016111ae565b9250506020611225858286016111da565b9150509250929050565b611238816110b0565b811461124357600080fd5b50565b6000813590506112558161122f565b92915050565b60008060006060848603121561127457611273611192565b5b600061128286828701611246565b935050602061129386828701611246565b92505060406112a4868287016111da565b9150509250925092565b6112b78161115c565b81146112c257600080fd5b50565b6000813590506112d4816112ae565b92915050565b6000806000606084860312156112f3576112f2611192565b5b6000611301868287016111ae565b9350506020611312868287016111da565b9250506040611323868287016112c5565b9150509250925092565b7f4e487b7100000000000000000000000000000000000000000000000000000000600052601160045260246000fd5b6000611367826110ec565b9150611372836110ec565b9250827fffffffffffffffffffffffffffffffffffffffffffffffffffffffffffffffff038211156113a7576113a661132d565b5b828201905092915050565b60006113bd826110ec565b91506113c8836110ec565b9250817fffffffffffffffffffffffffffffffffffffffffffffffffffffffffffffffff04831182151516156114015761140061132d565b5b828202905092915050565b7f4e487b7100000000000000000000000000000000000000000000000000000000600052600160045260246000fd5b6000819050919050565b600061146061145b61145684611090565b61143b565b611090565b9050919050565b600061147282611445565b9050919050565b600061148482611467565b9050919050565b61149481611479565b82525050565b60006080820190506114af6000830187611132565b6114bc602083018661148b565b6114c9604083018561148b565b6114d660608301846110f6565b95945050505050565b60006080820190506114f460008301876110f6565b61150160208301866110f6565b61150e60408301856110f6565b61151b60608301846110f6565b95945050505050565b600061152f826110ec565b915061153a836110ec565b92508282101561154d5761154c61132d565b5b828203905092915050565b600060608201905061156d6000830186611168565b61157a60208301856110f6565b61158760408301846110f6565b94935050505056fea2646970667358221220c929049656bdb92d7ce7c141df37009b3b425faf24f14a730f21e03c28c5854664736f6c634300080b0033",
  "immutableReferences": {},
  "source": "// SPDX-License-Identifier: MIT\r\npragma solidity >=0.4.22 <0.9.0;\r\n\r\ncontract Escrow_gas {\r\n\r\n  address payable public buyer;\r\n  address payable public seller; \r\n  uint public purchaseAmount = 0; \r\n\r\n  bool public initiated = false;\r\n  bool public finalized = false;\r\n\r\n  uint public buyerRequiredEscrow = 0;\r\n  uint public sellerRequiredEscrow = 0;\r\n  uint public totalEscrowAmount = 0;\r\n\r\n  uint public buyerEscrowedFunds = 0;\r\n  uint public sellerEscrowedFunds = 0;\r\n\r\n  uint256 public purchaseAmountTotal;\r\n\r\n  uint256 public partyArequiredFunding;\r\n  uint256 public partyBrequiredFunding;\r\n\r\n  address public partyA; //BUYER\r\n  address public partyB; //SELLER\r\n\r\n  uint256 public mutualEscrowAmount;\r\n\r\n  bool public buyerHasFunded = false;\r\n  bool public sellerHasFunded = false;\r\n\r\n  bool public escrowFullyFunded = false;\r\n\r\n  bool public buyerfinalized = false;\r\n  bool public sellerfinalized = false;\r\n\r\n  event Terms(uint purchaseAmount, uint totalEscrowAmount, uint BuyerRequiredFunding, uint SellerRequiredFunding);\r\n  event Initiated(address initiator, address buyer, address seller, uint tradeFundsforXfer);\r\n  event FundsReceived(address sender, uint amount);\r\n  event PartyFinalized(address party);\r\n  event EscrowComplete(bool completed, uint buyerReceives, uint sellerReceives);\r\n\r\n  function EscrowFunc(\r\n    address payable _buyer,\r\n    address payable _seller,\r\n    uint _purchaseAmount\r\n  ) public {\r\n \r\n    require(_seller != address(0));\r\n    require(_buyer != address(0));\r\n    require(_buyer != _seller);\r\n\r\n    require(msg.sender == _seller || msg.sender == _buyer);\r\n\r\n    require(_purchaseAmount > 0);\r\n\r\n    escrowFullyFunded = false;\r\n\r\n    buyer = _buyer; \r\n    seller = _seller; \r\n\r\n    initiated = true;\r\n\r\n    buyerRequiredEscrow = _purchaseAmount * 2;\r\n    sellerRequiredEscrow = _purchaseAmount;\r\n    totalEscrowAmount = _purchaseAmount * 3;\r\n    purchaseAmount = _purchaseAmount;\r\n\r\n    assert(totalEscrowAmount == (buyerRequiredEscrow + sellerRequiredEscrow));\r\n\r\n    emit Initiated(msg.sender, buyer, seller, _purchaseAmount);\r\n    emit Terms(purchaseAmount, totalEscrowAmount, buyerRequiredEscrow, sellerRequiredEscrow);\r\n  }\r\n\r\n  function Initiate(\r\n    address _counterParty,\r\n    uint256 _purchaseAmount,\r\n    bool _buyingNotSelling // TRUE if Buyer; FALSE if seller;\r\n  )\r\n  public returns\r\n  (bool) {\r\n    purchaseAmountTotal = _purchaseAmount;\r\n    mutualEscrowAmount = _purchaseAmount * 3;\r\n\r\n    if (_buyingNotSelling == true) {\r\n      partyA = msg.sender; //Buyer\r\n      partyB = _counterParty; //Seller\r\n      partyArequiredFunding = _purchaseAmount * 2;\r\n      partyBrequiredFunding = _purchaseAmount;\r\n\r\n    } else if (_buyingNotSelling == false) {\r\n      partyA = _counterParty; //Buyer\r\n      partyB = msg.sender; //Seller\r\n      partyArequiredFunding = _purchaseAmount;\r\n      partyBrequiredFunding = _purchaseAmount * 2;\r\n\r\n    } else {\r\n      revert(); // Fallback\r\n    }\r\n\r\n    initiated = true;\r\n    return true;\r\n\r\n\r\n  }\r\n\r\n  function fundContract(address _funder, uint _amount) public {\r\n    if (_funder == buyer && buyerEscrowedFunds <= buyerRequiredEscrow) {\r\n      uint buyerCurrentFunds = buyerEscrowedFunds;\r\n      buyerEscrowedFunds = buyerCurrentFunds + _amount;\r\n    } \r\n    if (_funder == seller && sellerEscrowedFunds <= sellerRequiredEscrow) {\r\n      uint sellerCurrentFunds = sellerEscrowedFunds;\r\n      sellerEscrowedFunds = sellerCurrentFunds + _amount;\r\n    }\r\n    checkFundingStatus();\r\n  }\r\n     \r\n  function checkFundingStatus() internal {\r\n    if (buyerEscrowedFunds >= buyerRequiredEscrow) {\r\n      buyerHasFunded = true;\r\n      fundContract(buyer, buyerEscrowedFunds);\r\n    }\r\n    if (sellerEscrowedFunds >= sellerRequiredEscrow) {\r\n      sellerHasFunded = true;\r\n      fundContract(seller, sellerEscrowedFunds);\r\n    }\r\n    if (sellerHasFunded == true && buyerHasFunded == true) {\r\n      escrowFullyFunded = true;\r\n    } else {\r\n      escrowFullyFunded = false;\r\n    }\r\n  }\r\n  \r\n  function buyerFinalize() public {\r\n    require(msg.sender == buyer);\r\n    buyerfinalized = true;\r\n    emit PartyFinalized(msg.sender);\r\n    \r\n    if (sellerfinalized == true) {\r\n      return finalizeTrade();\r\n    }\r\n  }\r\n\r\n  function sellerFinalize() public {\r\n    require(msg.sender == seller);\r\n    sellerfinalized = true;\r\n    emit PartyFinalized(msg.sender);\r\n\r\n    if (buyerfinalized == true) {\r\n      return finalizeTrade();\r\n    }\r\n  }\r\n\r\n  function finalizeTrade() internal {\r\n    require(sellerHasFunded == true);\r\n    require(buyerHasFunded == true);\r\n\r\n    require(buyerfinalized == true);\r\n    require(sellerfinalized == true);\r\n\r\n    require(finalized == false);\r\n\r\n    uint forSeller = purchaseAmount + sellerEscrowedFunds;\r\n\r\n    uint forBuyer = buyerEscrowedFunds - purchaseAmount;\r\n\r\n    emit EscrowComplete(finalized, forBuyer, forSeller);\r\n\r\n    seller.transfer(forSeller);\r\n    buyer.transfer(forBuyer);\r\n\r\n    finalized = true;\r\n    selfdestruct(seller);\r\n  }\r\n}",
  "sourcePath": "C:\\Users\\91955\\dapp\\contracts\\Escrow_gas.sol",
  "compiler": {
    "name": "solc",
    "version": "0.8.11+commit.d7f03943.Emscripten.clang"
  },
  "schemaVersion": "3.4.4",
  "updatedAt": "2022-04-19T18:49:49.501Z",
  "networkType": "ethereum",
  "devdoc": {
    "kind": "dev",
    "methods": {},
    "version": 1
  },
  "userdoc": {
    "kind": "user",
    "methods": {},
    "version": 1
  }
}