{
  "contractName": "MyClass",
  "abi": [
    {
      "inputs": [],
      "stateMutability": "nonpayable",
      "type": "constructor"
    },
    {
      "inputs": [
        {
          "internalType": "uint256",
          "name": "",
          "type": "uint256"
        }
      ],
      "name": "class",
      "outputs": [
        {
          "internalType": "uint256",
          "name": "id",
          "type": "uint256"
        },
        {
          "internalType": "string",
          "name": "firstName",
          "type": "string"
        },
        {
          "internalType": "string",
          "name": "lastName",
          "type": "string"
        }
      ],
      "stateMutability": "view",
      "type": "function"
    },
    {
      "inputs": [],
      "name": "count",
      "outputs": [
        {
          "internalType": "uint256",
          "name": "",
          "type": "uint256"
        }
      ],
      "stateMutability": "view",
      "type": "function"
    },
    {
      "inputs": [
        {
          "internalType": "string",
          "name": "_firstName",
          "type": "string"
        },
        {
          "internalType": "string",
          "name": "_lastName",
          "type": "string"
        }
      ],
      "name": "addStudent",
      "outputs": [],
      "stateMutability": "nonpayable",
      "type": "function"
    }
  ],
  "bytecode": "0x608060405260006001553480156200001657600080fd5b50336000806101000a81548173ffffffffffffffffffffffffffffffffffffffff021916908373ffffffffffffffffffffffffffffffffffffffff160217905550620000d36040518060400160405280600481526020017f416d6974000000000000000000000000000000000000000000000000000000008152506040518060400160405280600481526020017f4b68616e00000000000000000000000000000000000000000000000000000000815250620001d160201b60201c565b6200014f6040518060400160405280600481526020017f41746966000000000000000000000000000000000000000000000000000000008152506040518060400160405280600581526020017f41736c616d000000000000000000000000000000000000000000000000000000815250620001d160201b60201c565b620001cb6040518060400160405280600581526020017f52616865740000000000000000000000000000000000000000000000000000008152506040518060400160405280600e81526020017f466174656820416c69204b68616e000000000000000000000000000000000000815250620001d160201b60201c565b62000461565b3373ffffffffffffffffffffffffffffffffffffffff1660008054906101000a900473ffffffffffffffffffffffffffffffffffffffff1673ffffffffffffffffffffffffffffffffffffffff16146200022a57600080fd5b600160008154809291906200023f90620003ae565b919050555060405180606001604052806001548152602001838152602001828152506002600060015481526020019081526020016000206000820151816000015560208201518160010190805190602001906200029e929190620002c5565b506040820151816002019080519060200190620002bd929190620002c5565b509050505050565b828054620002d3906200042b565b90600052602060002090601f016020900481019282620002f7576000855562000343565b82601f106200031257805160ff191683800117855562000343565b8280016001018555821562000343579182015b828111156200034257825182559160200191906001019062000325565b5b50905062000352919062000356565b5090565b5b808211156200037157600081600090555060010162000357565b5090565b7f4e487b7100000000000000000000000000000000000000000000000000000000600052601160045260246000fd5b6000819050919050565b6000620003bb82620003a4565b91507fffffffffffffffffffffffffffffffffffffffffffffffffffffffffffffffff821415620003f157620003f062000375565b5b600182019050919050565b7f4e487b7100000000000000000000000000000000000000000000000000000000600052602260045260246000fd5b600060028204905060018216806200044457607f821691505b602082108114156200045b576200045a620003fc565b5b50919050565b6107bd80620004716000396000f3fe608060405234801561001057600080fd5b50600436106100415760003560e01c806306661abd146100465780633613a9f414610064578063e27bb1f714610096575b600080fd5b61004e6100b2565b60405161005b919061039b565b60405180910390f35b61007e600480360381019061007991906103f6565b6100b8565b60405161008d939291906104bc565b60405180910390f35b6100b060048036038101906100ab9190610636565b6101f2565b005b60015481565b60026020528060005260406000206000915090508060000154908060010180546100e1906106dd565b80601f016020809104026020016040519081016040528092919081815260200182805461010d906106dd565b801561015a5780601f1061012f5761010080835404028352916020019161015a565b820191906000526020600020905b81548152906001019060200180831161013d57829003601f168201915b50505050509080600201805461016f906106dd565b80601f016020809104026020016040519081016040528092919081815260200182805461019b906106dd565b80156101e85780601f106101bd576101008083540402835291602001916101e8565b820191906000526020600020905b8154815290600101906020018083116101cb57829003601f168201915b5050505050905083565b3373ffffffffffffffffffffffffffffffffffffffff1660008054906101000a900473ffffffffffffffffffffffffffffffffffffffff1673ffffffffffffffffffffffffffffffffffffffff161461024a57600080fd5b6001600081548092919061025d9061073e565b919050555060405180606001604052806001548152602001838152602001828152506002600060015481526020019081526020016000206000820151816000015560208201518160010190805190602001906102ba9291906102df565b5060408201518160020190805190602001906102d79291906102df565b509050505050565b8280546102eb906106dd565b90600052602060002090601f01602090048101928261030d5760008555610354565b82601f1061032657805160ff1916838001178555610354565b82800160010185558215610354579182015b82811115610353578251825591602001919060010190610338565b5b5090506103619190610365565b5090565b5b8082111561037e576000816000905550600101610366565b5090565b6000819050919050565b61039581610382565b82525050565b60006020820190506103b0600083018461038c565b92915050565b6000604051905090565b600080fd5b600080fd5b6103d381610382565b81146103de57600080fd5b50565b6000813590506103f0816103ca565b92915050565b60006020828403121561040c5761040b6103c0565b5b600061041a848285016103e1565b91505092915050565b600081519050919050565b600082825260208201905092915050565b60005b8381101561045d578082015181840152602081019050610442565b8381111561046c576000848401525b50505050565b6000601f19601f8301169050919050565b600061048e82610423565b610498818561042e565b93506104a881856020860161043f565b6104b181610472565b840191505092915050565b60006060820190506104d1600083018661038c565b81810360208301526104e38185610483565b905081810360408301526104f78184610483565b9050949350505050565b600080fd5b600080fd5b7f4e487b7100000000000000000000000000000000000000000000000000000000600052604160045260246000fd5b61054382610472565b810181811067ffffffffffffffff821117156105625761056161050b565b5b80604052505050565b60006105756103b6565b9050610581828261053a565b919050565b600067ffffffffffffffff8211156105a1576105a061050b565b5b6105aa82610472565b9050602081019050919050565b82818337600083830152505050565b60006105d96105d484610586565b61056b565b9050828152602081018484840111156105f5576105f4610506565b5b6106008482856105b7565b509392505050565b600082601f83011261061d5761061c610501565b5b813561062d8482602086016105c6565b91505092915050565b6000806040838503121561064d5761064c6103c0565b5b600083013567ffffffffffffffff81111561066b5761066a6103c5565b5b61067785828601610608565b925050602083013567ffffffffffffffff811115610698576106976103c5565b5b6106a485828601610608565b9150509250929050565b7f4e487b7100000000000000000000000000000000000000000000000000000000600052602260045260246000fd5b600060028204905060018216806106f557607f821691505b60208210811415610709576107086106ae565b5b50919050565b7f4e487b7100000000000000000000000000000000000000000000000000000000600052601160045260246000fd5b600061074982610382565b91507fffffffffffffffffffffffffffffffffffffffffffffffffffffffffffffffff82141561077c5761077b61070f565b5b60018201905091905056fea2646970667358221220e48099d54eaee087bd9b18d28ad6545716b74de98613db185b2c30570c02fb5864736f6c634300080b0033",
  "immutableReferences": {},
  "source": "// SPDX-License-Identifier: MIT\r\npragma solidity >=0.4.22 <0.9.0;\r\n\r\ncontract MyClass {\r\n\r\n    address professor;\r\n\r\n    constructor() public {\r\n        professor = msg.sender;\r\n        addStudent(\"Amit\",\"Khan\");\r\n        addStudent(\"Atif\",\"Aslam\");\r\n        addStudent(\"Rahet\",\"Fateh Ali Khan\");\r\n    }\r\n\r\n    modifier onlyProfessor() {\r\n        require(professor == msg.sender);\r\n        _;\r\n    }\r\n\r\n    uint public count = 0;\r\n\r\n    // maps from index specified, not necessarily from 0 like arrays\r\n    mapping(uint => Student) public class;\r\n\r\n    struct Student {\r\n        uint id;\r\n        string firstName;\r\n        string lastName;\r\n    }\r\n\r\n    function addStudent(\r\n        string memory _firstName, \r\n        string memory _lastName\r\n        ) public onlyProfessor {\r\n        count++; // 0 + 1 = 1, thus starts mapping from 1 in this case\r\n        class[count] = Student( count, _firstName, _lastName); // Student at key 1\r\n    }\r\n}",
  "sourcePath": "C:\\Users\\91955\\dapp\\contracts\\MyClass.sol",
  "compiler": {
    "name": "solc",
    "version": "0.8.11+commit.d7f03943.Emscripten.clang"
  },
  "schemaVersion": "3.4.4",
  "updatedAt": "2022-03-24T05:37:15.377Z",
  "devdoc": {
    "kind": "dev",
    "methods": {},
    "version": 1
  },
  "userdoc": {
    "kind": "user",
    "methods": {},
    "version": 1
  }
}