{
  "contractName": "Student1",
  "abi": [
    {
      "anonymous": false,
      "inputs": [
        {
          "indexed": false,
          "internalType": "uint256",
          "name": "date",
          "type": "uint256"
        },
        {
          "indexed": false,
          "internalType": "uint256",
          "name": "roll",
          "type": "uint256"
        },
        {
          "indexed": false,
          "internalType": "string",
          "name": "name",
          "type": "string"
        }
      ],
      "name": "admit",
      "type": "event"
    },
    {
      "inputs": [],
      "name": "r",
      "outputs": [
        {
          "internalType": "uint256",
          "name": "",
          "type": "uint256"
        }
      ],
      "stateMutability": "view",
      "type": "function"
    },
    {
      "inputs": [
        {
          "internalType": "string",
          "name": "name1",
          "type": "string"
        }
      ],
      "name": "setData",
      "outputs": [],
      "stateMutability": "nonpayable",
      "type": "function"
    },
    {
      "inputs": [],
      "name": "getData",
      "outputs": [
        {
          "internalType": "uint256",
          "name": "",
          "type": "uint256"
        },
        {
          "internalType": "uint256",
          "name": "",
          "type": "uint256"
        },
        {
          "internalType": "string",
          "name": "",
          "type": "string"
        }
      ],
      "stateMutability": "view",
      "type": "function"
    }
  ],
  "bytecode": "0x6080604052600060035534801561001557600080fd5b506106ee806100256000396000f3fe608060405234801561001057600080fd5b50600436106100415760003560e01c80633bc5de301461004657806347064d6a146100665780636c8ae38c14610082575b600080fd5b61004e6100a0565b60405161005d93929190610321565b60405180910390f35b610080600480360381019061007b91906104a8565b610144565b005b61008a6101c6565b60405161009791906104f1565b60405180910390f35b600080606060025460005460018080546100b99061053b565b80601f01602080910402602001604051908101604052809291908181526020018280546100e59061053b565b80156101325780601f1061010757610100808354040283529160200191610132565b820191906000526020600020905b81548152906001019060200180831161011557829003601f168201915b50505050509050925092509250909192565b806001908051906020019061015a9291906101cc565b5042600281905550600360008154809291906101759061059c565b91905055506003546000819055507fdfcf452afa342e57e631b28d9d30483ced89934b4807de3741a6c2d06010541360025460005460016040516101bb9392919061067a565b60405180910390a150565b60035481565b8280546101d89061053b565b90600052602060002090601f0160209004810192826101fa5760008555610241565b82601f1061021357805160ff1916838001178555610241565b82800160010185558215610241579182015b82811115610240578251825591602001919060010190610225565b5b50905061024e9190610252565b5090565b5b8082111561026b576000816000905550600101610253565b5090565b6000819050919050565b6102828161026f565b82525050565b600081519050919050565b600082825260208201905092915050565b60005b838110156102c25780820151818401526020810190506102a7565b838111156102d1576000848401525b50505050565b6000601f19601f8301169050919050565b60006102f382610288565b6102fd8185610293565b935061030d8185602086016102a4565b610316816102d7565b840191505092915050565b60006060820190506103366000830186610279565b6103436020830185610279565b818103604083015261035581846102e8565b9050949350505050565b6000604051905090565b600080fd5b600080fd5b600080fd5b600080fd5b7f4e487b7100000000000000000000000000000000000000000000000000000000600052604160045260246000fd5b6103b5826102d7565b810181811067ffffffffffffffff821117156103d4576103d361037d565b5b80604052505050565b60006103e761035f565b90506103f382826103ac565b919050565b600067ffffffffffffffff8211156104135761041261037d565b5b61041c826102d7565b9050602081019050919050565b82818337600083830152505050565b600061044b610446846103f8565b6103dd565b90508281526020810184848401111561046757610466610378565b5b610472848285610429565b509392505050565b600082601f83011261048f5761048e610373565b5b813561049f848260208601610438565b91505092915050565b6000602082840312156104be576104bd610369565b5b600082013567ffffffffffffffff8111156104dc576104db61036e565b5b6104e88482850161047a565b91505092915050565b60006020820190506105066000830184610279565b92915050565b7f4e487b7100000000000000000000000000000000000000000000000000000000600052602260045260246000fd5b6000600282049050600182168061055357607f821691505b602082108114156105675761056661050c565b5b50919050565b7f4e487b7100000000000000000000000000000000000000000000000000000000600052601160045260246000fd5b60006105a78261026f565b91507fffffffffffffffffffffffffffffffffffffffffffffffffffffffffffffffff8214156105da576105d961056d565b5b600182019050919050565b60008190508160005260206000209050919050565b600081546106078161053b565b6106118186610293565b9450600182166000811461062c576001811461063e57610671565b60ff1983168652602086019350610671565b610647856105e5565b60005b838110156106695781548189015260018201915060208101905061064a565b808801955050505b50505092915050565b600060608201905061068f6000830186610279565b61069c6020830185610279565b81810360408301526106ae81846105fa565b905094935050505056fea2646970667358221220962740cab9985e62ad6404b69d696dc7d3ea7ce37bb18959a942d972ad8c04da64736f6c634300080b0033",
  "immutableReferences": {},
  "source": "// SPDX-License-Identifier: MIT\r\npragma solidity >=0.4.22 <0.9.0;\r\n\r\ncontract Student1 {\r\n    uint roll;\r\n    string name;\r\n    uint date;\r\n    uint public r = 0;\r\n\r\nevent admit(uint date, uint roll, string name);\r\n\r\nfunction setData(string memory name1) public {\r\n    name = name1;\r\n    date = block.timestamp;\r\n    r++;\r\n    roll=r;\r\n    emit admit(date, roll, name);\r\n}\r\n\r\nfunction getData() public view returns(uint, uint, string memory) {\r\n    return(date, roll, name);\r\n}\r\n}",
  "sourcePath": "C:\\Users\\91955\\dapp\\contracts\\Student1.sol",
  "compiler": {
    "name": "solc",
    "version": "0.8.11+commit.d7f03943.Emscripten.clang"
  },
  "schemaVersion": "3.4.4",
  "updatedAt": "2022-03-24T05:37:15.383Z",
  "devdoc": {
    "kind": "dev",
    "methods": {},
    "version": 1
  },
  "userdoc": {
    "kind": "user",
    "methods": {},
    "version": 1
  }
}