{
  "contractName": "Veo",
  "abi": [
    {
      "anonymous": false,
      "inputs": [
        {
          "indexed": false,
          "internalType": "bool",
          "name": "completed",
          "type": "bool"
        },
        {
          "indexed": false,
          "internalType": "uint256",
          "name": "buyerReceives",
          "type": "uint256"
        },
        {
          "indexed": false,
          "internalType": "uint256",
          "name": "sellerReceives",
          "type": "uint256"
        }
      ],
      "name": "EscrowComplete",
      "type": "event"
    },
    {
      "anonymous": false,
      "inputs": [
        {
          "indexed": false,
          "internalType": "address",
          "name": "sender",
          "type": "address"
        },
        {
          "indexed": false,
          "internalType": "uint256",
          "name": "amount",
          "type": "uint256"
        }
      ],
      "name": "FundsReceived",
      "type": "event"
    },
    {
      "anonymous": false,
      "inputs": [
        {
          "indexed": false,
          "internalType": "address",
          "name": "initiator",
          "type": "address"
        },
        {
          "indexed": false,
          "internalType": "address",
          "name": "buyer",
          "type": "address"
        },
        {
          "indexed": false,
          "internalType": "address",
          "name": "seller",
          "type": "address"
        },
        {
          "indexed": false,
          "internalType": "uint256",
          "name": "tradeFundsforXfer",
          "type": "uint256"
        }
      ],
      "name": "Initiated",
      "type": "event"
    },
    {
      "anonymous": false,
      "inputs": [
        {
          "indexed": false,
          "internalType": "address",
          "name": "party",
          "type": "address"
        }
      ],
      "name": "PartyFinalized",
      "type": "event"
    },
    {
      "anonymous": false,
      "inputs": [
        {
          "indexed": false,
          "internalType": "uint256",
          "name": "purchaseAmount",
          "type": "uint256"
        },
        {
          "indexed": false,
          "internalType": "uint256",
          "name": "totalEscrowAmount",
          "type": "uint256"
        },
        {
          "indexed": false,
          "internalType": "uint256",
          "name": "BuyerRequiredFunding",
          "type": "uint256"
        },
        {
          "indexed": false,
          "internalType": "uint256",
          "name": "SellerRequiredFunding",
          "type": "uint256"
        }
      ],
      "name": "Terms",
      "type": "event"
    },
    {
      "stateMutability": "payable",
      "type": "fallback"
    },
    {
      "inputs": [],
      "name": "buyer",
      "outputs": [
        {
          "internalType": "address payable",
          "name": "",
          "type": "address"
        }
      ],
      "stateMutability": "view",
      "type": "function"
    },
    {
      "inputs": [],
      "name": "buyerEscrowedFunds",
      "outputs": [
        {
          "internalType": "uint256",
          "name": "",
          "type": "uint256"
        }
      ],
      "stateMutability": "view",
      "type": "function"
    },
    {
      "inputs": [],
      "name": "buyerHasFunded",
      "outputs": [
        {
          "internalType": "bool",
          "name": "",
          "type": "bool"
        }
      ],
      "stateMutability": "view",
      "type": "function"
    },
    {
      "inputs": [],
      "name": "buyerRequiredEscrow",
      "outputs": [
        {
          "internalType": "uint256",
          "name": "",
          "type": "uint256"
        }
      ],
      "stateMutability": "view",
      "type": "function"
    },
    {
      "inputs": [],
      "name": "buyerfinalized",
      "outputs": [
        {
          "internalType": "bool",
          "name": "",
          "type": "bool"
        }
      ],
      "stateMutability": "view",
      "type": "function"
    },
    {
      "inputs": [],
      "name": "escrowFullyFunded",
      "outputs": [
        {
          "internalType": "bool",
          "name": "",
          "type": "bool"
        }
      ],
      "stateMutability": "view",
      "type": "function"
    },
    {
      "inputs": [],
      "name": "finalized",
      "outputs": [
        {
          "internalType": "bool",
          "name": "",
          "type": "bool"
        }
      ],
      "stateMutability": "view",
      "type": "function"
    },
    {
      "inputs": [],
      "name": "initiated",
      "outputs": [
        {
          "internalType": "bool",
          "name": "",
          "type": "bool"
        }
      ],
      "stateMutability": "view",
      "type": "function"
    },
    {
      "inputs": [],
      "name": "purchaseAmount",
      "outputs": [
        {
          "internalType": "uint256",
          "name": "",
          "type": "uint256"
        }
      ],
      "stateMutability": "view",
      "type": "function"
    },
    {
      "inputs": [],
      "name": "seller",
      "outputs": [
        {
          "internalType": "address payable",
          "name": "",
          "type": "address"
        }
      ],
      "stateMutability": "view",
      "type": "function"
    },
    {
      "inputs": [],
      "name": "sellerEscrowedFunds",
      "outputs": [
        {
          "internalType": "uint256",
          "name": "",
          "type": "uint256"
        }
      ],
      "stateMutability": "view",
      "type": "function"
    },
    {
      "inputs": [],
      "name": "sellerHasFunded",
      "outputs": [
        {
          "internalType": "bool",
          "name": "",
          "type": "bool"
        }
      ],
      "stateMutability": "view",
      "type": "function"
    },
    {
      "inputs": [],
      "name": "sellerRequiredEscrow",
      "outputs": [
        {
          "internalType": "uint256",
          "name": "",
          "type": "uint256"
        }
      ],
      "stateMutability": "view",
      "type": "function"
    },
    {
      "inputs": [],
      "name": "sellerfinalized",
      "outputs": [
        {
          "internalType": "bool",
          "name": "",
          "type": "bool"
        }
      ],
      "stateMutability": "view",
      "type": "function"
    },
    {
      "inputs": [],
      "name": "totalEscrowAmount",
      "outputs": [
        {
          "internalType": "uint256",
          "name": "",
          "type": "uint256"
        }
      ],
      "stateMutability": "view",
      "type": "function"
    },
    {
      "inputs": [
        {
          "internalType": "address payable",
          "name": "_buyer",
          "type": "address"
        },
        {
          "internalType": "address payable",
          "name": "_seller",
          "type": "address"
        },
        {
          "internalType": "uint256",
          "name": "_purchaseAmount",
          "type": "uint256"
        }
      ],
      "name": "VeoEscrow",
      "outputs": [],
      "stateMutability": "nonpayable",
      "type": "function"
    },
    {
      "inputs": [
        {
          "internalType": "address",
          "name": "_funder",
          "type": "address"
        },
        {
          "internalType": "uint256",
          "name": "_amount",
          "type": "uint256"
        }
      ],
      "name": "fundContract",
      "outputs": [],
      "stateMutability": "nonpayable",
      "type": "function"
    },
    {
      "inputs": [],
      "name": "buyerFinalize",
      "outputs": [],
      "stateMutability": "nonpayable",
      "type": "function"
    },
    {
      "inputs": [],
      "name": "sellerFinalize",
      "outputs": [],
      "stateMutability": "nonpayable",
      "type": "function"
    }
  ],
  "bytecode": "0x608060405260006002556000600360006101000a81548160ff0219169083151502179055506000600360016101000a81548160ff021916908315150217905550600060045560006005556000600655600060075560006008556000600960006101000a81548160ff0219169083151502179055506000600960016101000a81548160ff0219169083151502179055506000600960026101000a81548160ff0219169083151502179055506000600960036101000a81548160ff0219169083151502179055506000600960046101000a81548160ff0219169083151502179055503480156100eb57600080fd5b506112f2806100fb6000396000f3fe6080604052600436106101185760003560e01c80638d531682116100a0578063bf4f288211610064578063bf4f2882146103ac578063c341853f146103c3578063ee051891146103ee578063f2a7d51b14610419578063f66732961461044457610119565b80638d531682146102d55780639f11853614610300578063a8fc144e1461032b578063ae91639714610356578063b3f05b971461038157610119565b80634aa51e1a116100e75780634aa51e1a146102125780634f5f0dec146102295780636b03fb00146102545780637150d8ae1461027f578063819d1a3e146102aa57610119565b806308551a531461016a5780630b72fe4e146101955780631125f37b146101be57806342e02fb4146101e957610119565b5b6000339050600034905061012d828261046f565b7f8e47b87b0ef542cdfa1659c551d88bad38aa7f452d2bbb349ab7530dfec8be8f828260405161015e929190610e6d565b60405180910390a15050005b34801561017657600080fd5b5061017f61057b565b60405161018c9190610eb7565b60405180910390f35b3480156101a157600080fd5b506101bc60048036038101906101b79190610f2f565b6105a1565b005b3480156101ca57600080fd5b506101d361089e565b6040516101e09190610f9d565b60405180910390f35b3480156101f557600080fd5b50610210600480360381019061020b9190610fe4565b61046f565b005b34801561021e57600080fd5b506102276108b1565b005b34801561023557600080fd5b5061023e610984565b60405161024b9190611024565b60405180910390f35b34801561026057600080fd5b5061026961098a565b6040516102769190610f9d565b60405180910390f35b34801561028b57600080fd5b5061029461099d565b6040516102a19190610eb7565b60405180910390f35b3480156102b657600080fd5b506102bf6109c1565b6040516102cc9190611024565b60405180910390f35b3480156102e157600080fd5b506102ea6109c7565b6040516102f79190610f9d565b60405180910390f35b34801561030c57600080fd5b506103156109da565b6040516103229190610f9d565b60405180910390f35b34801561033757600080fd5b506103406109ed565b60405161034d9190611024565b60405180910390f35b34801561036257600080fd5b5061036b6109f3565b6040516103789190611024565b60405180910390f35b34801561038d57600080fd5b506103966109f9565b6040516103a39190610f9d565b60405180910390f35b3480156103b857600080fd5b506103c1610a0c565b005b3480156103cf57600080fd5b506103d8610ae2565b6040516103e59190611024565b60405180910390f35b3480156103fa57600080fd5b50610403610ae8565b6040516104109190611024565b60405180910390f35b34801561042557600080fd5b5061042e610aee565b60405161043b9190610f9d565b60405180910390f35b34801561045057600080fd5b50610459610b01565b6040516104669190610f9d565b60405180910390f35b60008054906101000a900473ffffffffffffffffffffffffffffffffffffffff1673ffffffffffffffffffffffffffffffffffffffff168273ffffffffffffffffffffffffffffffffffffffff161480156104ce575060045460075411155b156104ee576000600754905081816104e6919061106e565b600781905550505b600160009054906101000a900473ffffffffffffffffffffffffffffffffffffffff1673ffffffffffffffffffffffffffffffffffffffff168273ffffffffffffffffffffffffffffffffffffffff1614801561054f575060055460085411155b1561056f57600060085490508181610567919061106e565b600881905550505b610577610b14565b5050565b600160009054906101000a900473ffffffffffffffffffffffffffffffffffffffff1681565b600073ffffffffffffffffffffffffffffffffffffffff168273ffffffffffffffffffffffffffffffffffffffff1614156105db57600080fd5b600073ffffffffffffffffffffffffffffffffffffffff168373ffffffffffffffffffffffffffffffffffffffff16141561061557600080fd5b8173ffffffffffffffffffffffffffffffffffffffff168373ffffffffffffffffffffffffffffffffffffffff16141561064e57600080fd5b8173ffffffffffffffffffffffffffffffffffffffff163373ffffffffffffffffffffffffffffffffffffffff1614806106b357508273ffffffffffffffffffffffffffffffffffffffff163373ffffffffffffffffffffffffffffffffffffffff16145b6106bc57600080fd5b600081116106c957600080fd5b6000600960026101000a81548160ff021916908315150217905550826000806101000a81548173ffffffffffffffffffffffffffffffffffffffff021916908373ffffffffffffffffffffffffffffffffffffffff16021790555081600160006101000a81548173ffffffffffffffffffffffffffffffffffffffff021916908373ffffffffffffffffffffffffffffffffffffffff1602179055506001600360006101000a81548160ff02191690831515021790555060028161078d91906110c4565b600481905550806005819055506003816107a791906110c4565b600681905550806002819055506005546004546107c4919061106e565b600654146107d5576107d461111e565b5b7f481925be43dc1ea1406c8639bb61697816d24e9e3899052a4e8ee218e7a0eb363360008054906101000a900473ffffffffffffffffffffffffffffffffffffffff16600160009054906101000a900473ffffffffffffffffffffffffffffffffffffffff168460405161084c94939291906111ac565b60405180910390a17f69759e3659bae3d5a28e2aa3aa80c6ec1ef6a035a6c807b988615f144959925a60025460065460045460055460405161089194939291906111f1565b60405180910390a1505050565b600960049054906101000a900460ff1681565b600160009054906101000a900473ffffffffffffffffffffffffffffffffffffffff1673ffffffffffffffffffffffffffffffffffffffff163373ffffffffffffffffffffffffffffffffffffffff161461090b57600080fd5b6001600960046101000a81548160ff0219169083151502179055507f68b2e274177a5387b8318d5676b1c276abf858756d303d3a6c253ff3515944f2336040516109559190611236565b60405180910390a160011515600960039054906101000a900460ff161515141561098257610981610bdb565b5b565b60045481565b600960039054906101000a900460ff1681565b60008054906101000a900473ffffffffffffffffffffffffffffffffffffffff1681565b60085481565b600960029054906101000a900460ff1681565b600360009054906101000a900460ff1681565b60075481565b60065481565b600360019054906101000a900460ff1681565b60008054906101000a900473ffffffffffffffffffffffffffffffffffffffff1673ffffffffffffffffffffffffffffffffffffffff163373ffffffffffffffffffffffffffffffffffffffff1614610a6457600080fd5b6001600960036101000a81548160ff0219169083151502179055507f68b2e274177a5387b8318d5676b1c276abf858756d303d3a6c253ff3515944f233604051610aae9190611236565b60405180910390a160011515600960049054906101000a900460ff1615151415610adf57610ada610bdb565b610ae0565b5b565b60025481565b60055481565b600960009054906101000a900460ff1681565b600960019054906101000a900460ff1681565b60045460075410610b3b576001600960006101000a81548160ff0219169083151502179055505b60055460085410610b62576001600960016101000a81548160ff0219169083151502179055505b60011515600960019054906101000a900460ff161515148015610b98575060011515600960009054906101000a900460ff161515145b15610bbd576001600960026101000a81548160ff021916908315150217905550610bd9565b6000600960026101000a81548160ff0219169083151502179055505b565b60011515600960019054906101000a900460ff16151514610bfb57600080fd5b60011515600960009054906101000a900460ff16151514610c1b57600080fd5b60011515600960039054906101000a900460ff16151514610c3b57600080fd5b60011515600960049054906101000a900460ff16151514610c5b57600080fd5b60001515600360019054906101000a900460ff16151514610c7b57600080fd5b6000600854600254610c8d919061106e565b90506000600254600754610ca19190611251565b90507f6d2d1cef1901e61bd791b41ebbf61bcc142915be4255d75d796211fd63de9e52600360019054906101000a900460ff168284604051610ce593929190611285565b60405180910390a1600160009054906101000a900473ffffffffffffffffffffffffffffffffffffffff1673ffffffffffffffffffffffffffffffffffffffff166108fc839081150290604051600060405180830381858888f19350505050158015610d55573d6000803e3d6000fd5b5060008054906101000a900473ffffffffffffffffffffffffffffffffffffffff1673ffffffffffffffffffffffffffffffffffffffff166108fc829081150290604051600060405180830381858888f19350505050158015610dbc573d6000803e3d6000fd5b506001600360016101000a81548160ff021916908315150217905550600160009054906101000a900473ffffffffffffffffffffffffffffffffffffffff1673ffffffffffffffffffffffffffffffffffffffff16ff5b600073ffffffffffffffffffffffffffffffffffffffff82169050919050565b6000610e3e82610e13565b9050919050565b610e4e81610e33565b82525050565b6000819050919050565b610e6781610e54565b82525050565b6000604082019050610e826000830185610e45565b610e8f6020830184610e5e565b9392505050565b6000610ea182610e13565b9050919050565b610eb181610e96565b82525050565b6000602082019050610ecc6000830184610ea8565b92915050565b600080fd5b610ee081610e96565b8114610eeb57600080fd5b50565b600081359050610efd81610ed7565b92915050565b610f0c81610e54565b8114610f1757600080fd5b50565b600081359050610f2981610f03565b92915050565b600080600060608486031215610f4857610f47610ed2565b5b6000610f5686828701610eee565b9350506020610f6786828701610eee565b9250506040610f7886828701610f1a565b9150509250925092565b60008115159050919050565b610f9781610f82565b82525050565b6000602082019050610fb26000830184610f8e565b92915050565b610fc181610e33565b8114610fcc57600080fd5b50565b600081359050610fde81610fb8565b92915050565b60008060408385031215610ffb57610ffa610ed2565b5b600061100985828601610fcf565b925050602061101a85828601610f1a565b9150509250929050565b60006020820190506110396000830184610e5e565b92915050565b7f4e487b7100000000000000000000000000000000000000000000000000000000600052601160045260246000fd5b600061107982610e54565b915061108483610e54565b9250827fffffffffffffffffffffffffffffffffffffffffffffffffffffffffffffffff038211156110b9576110b861103f565b5b828201905092915050565b60006110cf82610e54565b91506110da83610e54565b9250817fffffffffffffffffffffffffffffffffffffffffffffffffffffffffffffffff04831182151516156111135761111261103f565b5b828202905092915050565b7f4e487b7100000000000000000000000000000000000000000000000000000000600052600160045260246000fd5b6000819050919050565b600061117261116d61116884610e13565b61114d565b610e13565b9050919050565b600061118482611157565b9050919050565b600061119682611179565b9050919050565b6111a68161118b565b82525050565b60006080820190506111c16000830187610e45565b6111ce602083018661119d565b6111db604083018561119d565b6111e86060830184610e5e565b95945050505050565b60006080820190506112066000830187610e5e565b6112136020830186610e5e565b6112206040830185610e5e565b61122d6060830184610e5e565b95945050505050565b600060208201905061124b6000830184610e45565b92915050565b600061125c82610e54565b915061126783610e54565b92508282101561127a5761127961103f565b5b828203905092915050565b600060608201905061129a6000830186610f8e565b6112a76020830185610e5e565b6112b46040830184610e5e565b94935050505056fea264697066735822122079123a69cc55abc8d2a8cca53c8e4c70eef2a14fa92a070b192ae880f13ed89e64736f6c634300080b0033",
  "immutableReferences": {},
  "source": "// SPDX-License-Identifier: MIT\r\npragma solidity >=0.4.22 <0.9.0;\r\n\r\ncontract Veo {\r\n\r\n  // Escrow parameters set at deployment\r\n  address payable public buyer; //BUYER\r\n  address payable public seller; //SELLER\r\n  uint public purchaseAmount = 0; //Total paid by BUYER\r\n\r\n  // escrow state\r\n  bool public initiated = false;\r\n  bool public finalized = false;\r\n\r\n  // @dev Buyer required escrow funding (2x purchaseAmount)\r\n  uint public buyerRequiredEscrow = 0;\r\n  // @dev Seller required escrow funding (1x purchaseAmount)\r\n  uint public sellerRequiredEscrow = 0;\r\n  // @dev TOTAL required escrow funding (3x purchaseAmount)\r\n  uint public totalEscrowAmount = 0;\r\n\r\n  // @dev Buyer escrow funding received\r\n  uint public buyerEscrowedFunds = 0;\r\n  // @dev Seller escrow funding received\r\n  uint public sellerEscrowedFunds = 0;\r\n\r\n  // @notice This will be true when the buyer has sent 2x the purchaseAmount\r\n  // @dev True when buyerEscrowedFunds >= buyerRequiredEscrow\r\n  bool public buyerHasFunded = false;\r\n  // @notice Has Seller sent required amount of ETH to escrow\r\n  // @dev True when sellerEscrowedFunds >= sellerRequiredEscrow\r\n  bool public sellerHasFunded = false;\r\n\r\n  // @notice Has enough ETH been sent to escrow to meet escrow requirement\r\n  // @dev True when both buyerHasFunded = true AND sellerHasFunded = true \r\n  bool public escrowFullyFunded = false;\r\n\r\n\r\n  // Once FullyFunded, both parties must finalize the trade/sale\r\n  bool public buyerfinalized = false;\r\n  bool public sellerfinalized = false;\r\n\r\n  event Terms(uint purchaseAmount, uint totalEscrowAmount, uint BuyerRequiredFunding, uint SellerRequiredFunding);\r\n  event Initiated(address initiator, address buyer, address seller, uint tradeFundsforXfer);\r\n  event FundsReceived(address sender, uint amount);\r\n  event PartyFinalized(address party);\r\n  event EscrowComplete(bool completed, uint buyerReceives, uint sellerReceives);\r\n\r\n\r\n  /** Constructor\r\n   * @param _buyer address of the buyer\r\n   * @param _seller address of the seller\r\n   * @param _purchaseAmount uint amount of ETH being paid to seller\r\n   */\r\n  function VeoEscrow(\r\n    address payable _buyer,\r\n    address payable _seller,\r\n    uint _purchaseAmount\r\n  ) public {\r\n    // require _seller and _buyer to be non-zero and unique.\r\n    require(_seller != address(0));\r\n    require(_buyer != address(0));\r\n    require(_buyer != _seller);\r\n\r\n    // require the contract creator to be either _buyer or _seller\r\n    require(msg.sender == _seller || msg.sender == _buyer);\r\n\r\n    // require escrow amount to be non-zero\r\n    require(_purchaseAmount > 0);\r\n    \r\n    // ensure variable set to false\r\n    escrowFullyFunded = false;\r\n\r\n    // assign trade parties\r\n    buyer = _buyer; //Buyer\r\n    seller = _seller; //Seller\r\n\r\n    // set state to initiated\r\n    initiated = true;\r\n\r\n    // set required funding amounts\r\n    buyerRequiredEscrow = _purchaseAmount * 2;\r\n    sellerRequiredEscrow = _purchaseAmount;\r\n    totalEscrowAmount = _purchaseAmount * 3;\r\n    purchaseAmount = _purchaseAmount;\r\n\r\n    // assert that the required total is a sum of the parts\r\n    assert(totalEscrowAmount == (buyerRequiredEscrow + sellerRequiredEscrow));\r\n    \r\n    // event emission\r\n    emit Initiated(msg.sender, buyer, seller, _purchaseAmount);\r\n    emit Terms(purchaseAmount, totalEscrowAmount, buyerRequiredEscrow, sellerRequiredEscrow);\r\n  }\r\n\r\n  /**\r\n   * @dev fallback function to receive funds sent to this escrow contract\r\n   * @dev this function then calls the internal fundContract() function\r\n   */\r\n  fallback() external payable {\r\n    address _funder = msg.sender;\r\n    uint _amount = msg.value;\r\n    fundContract(_funder, _amount);\r\n    emit FundsReceived(_funder, _amount);\r\n  }\r\n\r\n  /** @dev called internally to add received funds to the respective party balance\r\n   *  @param _funder address that sent ETH to fund escrow\r\n   *  @param _amount uint of ETH that was send by the _funder\r\n   *  @dev if the _funder's respective balance is less than required the _amount is\r\n   *       added to their EscrowedFunds balance\r\n   *  @dev finally, the checkFundingStatus() function is called internally\r\n   */\r\n  function fundContract(address _funder, uint _amount) public {\r\n    if (_funder == buyer && buyerEscrowedFunds <= buyerRequiredEscrow) {\r\n      uint buyerCurrentFunds = buyerEscrowedFunds;\r\n      buyerEscrowedFunds = buyerCurrentFunds + _amount;\r\n    } \r\n    if (_funder == seller && sellerEscrowedFunds <= sellerRequiredEscrow) {\r\n      uint sellerCurrentFunds = sellerEscrowedFunds;\r\n      sellerEscrowedFunds = sellerCurrentFunds + _amount;\r\n    }\r\n    checkFundingStatus();\r\n  }\r\n  /**\r\n   * @notice internal function to check funding status\r\n   * @dev set respective party's funding status to true if\r\n   * amount of funds received from said party is >= required funds \r\n   * @dev If both buyer and seller have sent enough ETH\r\n   *      as per required amounts than set escrowFullyFunded to true\r\n   */      \r\n  function checkFundingStatus() internal {\r\n    if (buyerEscrowedFunds >= buyerRequiredEscrow) {\r\n      buyerHasFunded = true;\r\n    }\r\n    if (sellerEscrowedFunds >= sellerRequiredEscrow) {\r\n      sellerHasFunded = true;\r\n    }\r\n    if (sellerHasFunded == true && buyerHasFunded == true) {\r\n      escrowFullyFunded = true;\r\n    } else {\r\n      escrowFullyFunded = false;\r\n    }\r\n  }\r\n  \r\n  /**\r\n   * @notice Once fully funded, both parties must finalize the transaction\r\n   * @dev Once both finalizations are received the funds are released accordingly\r\n   * @dev The logic works such that if one party finalizes the contract checks\r\n   *      to see if the other party has already finalized.\r\n   */\r\n  function buyerFinalize() public {\r\n    require(msg.sender == buyer);\r\n    buyerfinalized = true;\r\n    emit PartyFinalized(msg.sender);\r\n    \r\n    if (sellerfinalized == true) {\r\n      return finalizeTrade();\r\n    }\r\n  }\r\n\r\n  function sellerFinalize() public {\r\n    require(msg.sender == seller);\r\n    sellerfinalized = true;\r\n    emit PartyFinalized(msg.sender);\r\n\r\n    if (buyerfinalized == true) {\r\n      finalizeTrade();\r\n    }\r\n  }\r\n\r\n  /**\r\n   * @dev finalizeTrade called internally to distribute the escrow funds\r\n   */\r\n  function finalizeTrade() internal {\r\n    // require both parties to have funded the escrow as required\r\n    require(sellerHasFunded == true);\r\n    require(buyerHasFunded == true);\r\n\r\n    // require both parties to have finalized the trade\r\n    require(buyerfinalized == true);\r\n    require(sellerfinalized == true);\r\n\r\n    // require that the trade has not yet been finalized\r\n    require(finalized == false);\r\n\r\n    // Seller receives the purchaseAmount and their escrowed funds\r\n    uint256 forSeller = purchaseAmount + sellerEscrowedFunds;\r\n\r\n    // Buyer receives their escrowed funds minus the purchaseAmount\r\n    uint256 forBuyer = buyerEscrowedFunds - purchaseAmount;\r\n\r\n    // event emission\r\n    emit EscrowComplete(finalized, forBuyer, forSeller);\r\n\r\n    // transfer the funds\r\n    seller.transfer(forSeller);\r\n    buyer.transfer(forBuyer);\r\n\r\n    // finalize the trade\r\n    finalized = true;\r\n\r\n    // destroy escrow contract to preserve anonymity and reduce chainwaste\r\n    // NOTE: seller was chosen since VEO transaction fees are usually from their pocket\r\n    // this value should be close to zero if not zero anyway\r\n    selfdestruct(seller);\r\n\r\n  }\r\n\r\n}",
  "sourcePath": "C:\\Users\\91955\\dapp\\contracts\\Escrow.sol",
  "compiler": {
    "name": "solc",
    "version": "0.8.11+commit.d7f03943.Emscripten.clang"
  },
  "schemaVersion": "3.4.4",
  "updatedAt": "2022-03-02T06:25:45.938Z",
  "devdoc": {
    "kind": "dev",
    "methods": {
      "VeoEscrow(address,address,uint256)": {
        "params": {
          "_buyer": "address of the buyer",
          "_purchaseAmount": "uint amount of ETH being paid to seller",
          "_seller": "address of the seller"
        }
      },
      "buyerFinalize()": {
        "details": "Once both finalizations are received the funds are released accordinglyThe logic works such that if one party finalizes the contract checks      to see if the other party has already finalized."
      },
      "fundContract(address,uint256)": {
        "details": "called internally to add received funds to the respective party balanceif the _funder's respective balance is less than required the _amount is       added to their EscrowedFunds balancefinally, the checkFundingStatus() function is called internally",
        "params": {
          "_amount": "uint of ETH that was send by the _funder",
          "_funder": "address that sent ETH to fund escrow"
        }
      }
    },
    "version": 1
  },
  "userdoc": {
    "kind": "user",
    "methods": {
      "VeoEscrow(address,address,uint256)": {
        "notice": "Constructor"
      },
      "buyerFinalize()": {
        "notice": "Once fully funded, both parties must finalize the transaction"
      }
    },
    "version": 1
  }
}